:020000040800F2
:10000000300E0020F5010008B32A00088322000802
:10001000B12A0008810900087D36000800000000B0
:10002000000000000000000000000000212C00087B
:10003000F109000800000000E52A0008512D000821
:100040000F0200080F0200080F0200080F0200084C
:100050000F0200080F020008190A00081F0A000812
:10006000250A00082B0A0008310A00080F020008C0
:100070000F0200080F0200080F0200080F0200081C
:100080000F0200080F0200080F0200080F0200080C
:100090000F0200080F0200080F020008370A0008CC
:1000A0000F0200080F0200080F0200080F020008EC
:1000B0000F0200080F0200080F0200080F020008DC
:1000C0000F0200080F0200080F0200080F020008CC
:1000D0000F020008DD320008E93200080F020008B4
:1000E0000F0200080F0200080F0200080F020008AC
:1000F0000F0200080F0200080F0200080F0200089C
:100100000F0200080F0200080F0200080F0200088B
:100110000F0200080F0200080F0200080F0200087B
:100120000F0200080F0200080F0200080F0200086B
:1001300000F002F800F04EF80AA090E8000C8244AB
:100140008344AAF10107DA4501D100F043F8AFF288
:10015000090EBAE80F0013F0010F18BFFB1A43F0A5
:1001600001031847F03D0000103E0000103A24BF84
:1001700078C878C1FAD8520724BF30C830C144BF0C
:1001800004680C607047000000230024002500264E
:10019000103A28BF78C1FBD8520728BF30C148BFEA
:1001A0000B607047642900F0AB80752900F0A880CF
:1001B000632900F02283002070471FB500F07CFB0C
:1001C00004000020002103F03DFC401C60601FBDC6
:1001D00010B510BD00F082FB1146FFF7EEFF03F0F3
:1001E00065FA00F0A0FB03B4FFF7F2FF03BC00F0D8
:1001F000A3FB00000948804709480047FEE7FEE7E7
:10020000FEE7FEE7FEE7FEE7FEE7FEE7FEE7FEE7C6
:1002100004480549054A064B70470000B32D000805
:100220003101000830080020300E0020300A002084
:10023000300A00200FB41CB5084B06AA7B4469465F
:100240000090059800F0B7FA04460020694600F0D7
:10025000C5FA20461CBC5DF814FB00009D0500009B
:1002600070B5044685690068C10601D5302600E0F6
:100270002026C00707D070BDD4E901213046904741
:10028000206A401C20626D1EF6D570BD70B5044614
:1002900085690078C00707D170BDD4E9012120200D
:1002A0009047206A401C20626D1EF6D570BD70B567
:1002B0000C460546012A05D02878800600D5EA6953
:1002C000002302E0012305E05B1C934202D2E05CC4
:1002D0000028F9D1A869E618C01AA861286A18444C
:1002E00028622846FFF7BCFF04E0D5E9012114F895
:1002F000010B9047B442F8D32846FFF7C7FF70BD03
:100300002DE9F0410646002410687529314616A5EE
:1003100010D0AFF30080002802DA404213A507E0B6
:1003200031688A0701D512A502E0490704D511A555
:10033000012401E0AFF3008000210A2206F1240726
:1003400009E0B0FBF2FCB0FBF2F302FB1C00303022
:1003500078541846491C0028F3D123462A463046D3
:10036000BDE8F04100F0C8B9000000002D00000019
:100370002B000000200000002DE9F05F89460446B4
:100380004FF0000ADFF874B1FB44C0F820A020460B
:10039000E1688847002874D0252806D0D4E90121D7
:1003A0009047206A401C2062F1E700265F46204605
:1003B000E16888472028054607DB312D05D27819EA
:1003C00010F8200C08B10643F1E7B00701D526F07C
:1003D0000406C4F81CA00027C4F818A02A2D09D0D0
:1003E000284603F05CF938B304EB8708303DC8F8C1
:1003F000185019E059F8041B204604EB870291615C
:10040000E1688847012F054618D1E069002820DA05
:1004100026F020061DE0D8F8180000EB800005EB60
:1004200040003038C8F818002046E1688847054683
:1004300003F035F90028EED1012F0AD02E2D08D176
:100440002046E16888477F1C0546022F46F02006BB
:10045000C4DBA069002803DA404246F00106A0612F
:10046000F00701D026F010066C2D0BD0682D09D0B6
:100470004C2D39D06A2D35D0742D35D07A2D33D00E
:1004800016E038E0E1682F4620468847B842054626
:1004900009D16C2F26D04FF48060E16806432046D6
:1004A0008847054604E06C2F1AD04FF4807006434D
:1004B0000DB3A5F14100192802D8203546F4006695
:1004C0004A462946204626604E46FFF76BFE80B11D
:1004D00001280BD0F61D26F0070000F1080956E7A9
:1004E0004020E4E78020D8E70020D6E706F10409A1
:1004F0004DE7284652E7206ABDE8F09FB43B000074
:100500002DE9F05F93460F4680460446002600F032
:10051000EFF8D0F80090824614F8015B2DB100F09E
:10052000DFF80068405DC007F6D12B2D02D02D2DDD
:100530001AD0641E0021CAF800105A4639462046D7
:1005400000F067F9014627B13868A04201D1C7F829
:100550000080DAF80000022809D0CAF8009070057F
:1005600005D54842BDE8F09F46F48066E2E70846BC
:10057000F8E740EA010370B59B072ED14FF0013632
:10058000042A2AD308C810C99D1B9D43121F15EACF
:10059000C61517D0D8B2E1B2401A50EA056110D1A1
:1005A00098B2A1B2401A50EA05410AD123F07F4027
:1005B00024F07F41401A50EA052102D1180EA0EB29
:1005C000146070BDA342DBD018BA21BA884201D9A9
:1005D000012070BD4FF0FF3070BD0AB9002070BD22
:1005E00010F8013B11F8014B63B1A3420AD1521E2E
:1005F00008D010F8013B11F8014B1BB1A34201D107
:10060000521EEDD1181B70BD4FF0000200B513460D
:1006100094469646203922BFA0E80C50A0E80C5022
:10062000B1F12001BFF4F7AF090728BFA0E80C50D3
:1006300048BF0CC05DF804EB890028BF40F8042BCC
:1006400008BF704748BF20F8022B11F0804F18BF39
:1006500000F8012B704700004FF0013C50F8042BCC
:1006600051F8043B9A4221D1A2EB0C03934313EAC5
:10067000CC1317D150F8042B51F8043B9A4215D1F2
:10068000A2EB0C03934313EACC130BD150F8042BC9
:1006900051F8043B9A4209D1A2EB0C03934313EAAD
:1006A000CC13DBD04FF00000704700BFD01A01BA66
:1006B000B1FA81F101F0180122FA01F0CB40C1F149
:1006C0002001DBB2C0B2C01A2CFA01F3D11A914357
:1006D00011EAC311E6D170477047704770470000B8
:1006E00010B500F0E9F8001D10BD00BF593300003F
:1006F00000487047CC0700202DE9F0470D46994689
:100700009246044600F124080168880604D5E06991
:1007100021F01001216000E00120A84201DD471B0B
:1007200000E00027A1697A1902EB0900081AA0610C
:100730002078C00602D42046FFF792FD002608E08C
:10074000D4E901211AF806009047206A401C761C63
:1007500020624E45F4DB2078C0060AD52046FFF71C
:100760007FFD06E0D4E9012130209047206A401C3B
:100770002062381EA7F10107F4DC07E0D4E901216B
:1007800018F805009047206A401C2062281EA5F139
:100790000105F3DC2046FFF779FD2078000602D53D
:1007A0000220BDE8F0870120FBE7000001694A1C38
:1007B00002610878704700B58FB0CDE901310021A2
:1007C000059105497944CDE9031011466846FFF7C4
:1007D000D3FD0FB000BD0000E5FFFFFF0A6802F87F
:1007E000010B0A60704710B5436913B1AFF3008085
:1007F00001E0FFF75CFD012010BD127800F124013B
:100800000A7000224A700122EDE711684FF0FF32B2
:10081000E9E72DE9F05F824615468B4600270AF18D
:100820000104B9460078302801D09DB113E014F8D6
:10083000010B0127782803D0582801D045B10AE0E0
:100840000DB1102D07D1002714F8010B102502E07F
:10085000082500E00A250026B0460EE005FB08004A
:1008600005FB06F101271FFA80F801EB1046B6F5EB
:10087000803F00D3B94614F8010B294600F020F858
:100880000028EBDABBF1000F05D00FB1641E00E0C9
:100890005446CBF80040B9F1000F06D0FFF728FF0F
:1008A00002210160C81EBDE8F09F48EA0640FAE751
:1008B00000487047CC07002000487047EC07002034
:1008C0003A2800D2303820F02002412A01D3A2F188
:1008D0003700884201D34FF0FF3070477546FFF76D
:1008E000E7FFAE4605006946534620F007008546FF
:1008F00018B020B5FFF78CFCBDE820404FF0000693
:100900004FF000074FF000084FF0000B21F00701F7
:10091000AC46ACE8C009ACE8C009ACE8C009ACE83A
:10092000C0098D46704710B50446AFF300802046DD
:10093000BDE81040FFF757BC01491820ABBEFEE7E9
:10094000260002007047002800DA4042704700008D
:1009500010B50446094903F061F94FF07C5114F1D8
:10096000FF4F05D203F084F8BDE8104003F0EEB865
:1009700003F051FA03F0EAF8404210BD0000C8420B
:10098000FEE7002800DA404248434FF47A7190FBBA
:10099000F1F07047884201DA084670479042FCDD6A
:1009A0001046704710B54FF4FA725142FFF7F2FF4C
:1009B00000F2DC5080B210BD10B5EFF3108372B6B8
:1009C000094A947A14B140F2DC5001461084D18374
:1009D000D27A22B1054A1468606310688163002BE3
:1009E00000D162B610BD00000000002044050020C8
:1009F00070470000064900224A738A7380310A65F5
:100A00004A65044A12688865CA64C8657047000070
:100A100000000020F0000020012000F0B3B9022007
:100A200000F0B0B9042000F0ADB9082000F0AAB978
:100A3000102000F0A7B910B5202000F0A3F9402045
:100A400000F0A0F9802000F09DF94FF4807000F0D4
:100A500099F9BDE810404FF4007000F093B970B5FB
:100A60008CB00E46054624216846FFF7CDFD0024D4
:100A700009940A94C5E900644FF6FF70C5E9024085
:100A80002C61AC610320CDE900040120CDE9020412
:100A900004210491CDE90540CDE907416946284686
:100AA00000F0F2FE08B100F00CF8099409A92846FC
:100AB0000A9400F0BDFD002801D000F002F80CB04F
:100AC00070BD72B6FEE710B590F821100022022921
:100AD00005D00421816380F82020012010BD016829
:100AE0000B6823F00E030B6001680B6823F0010311
:100AF0000B6090F84030C46B012101FA03F363608E
:100B000080F8211080F82020104610BD2DE9F05FFC
:100B100090F821100024022903D0042181630124CC
:100B200085E001680A6822F00E020A6001680A681E
:100B300022F001020A603F4E3E4FB215DFF8F4C0CA
:100B4000DFF8F090DFF8ECA0DFF8E8B0DFF8E4E0E1
:100B50000168783F13011502ACF1640CA9F150094A
:100B6000AAF13C0AABF1280BAEF1140E4FF4801839
:100B7000B14227D9B9420ED0614512D049451DD0A6
:100B8000514518D0594518D0714501D1424615E05C
:100B9000294EB14201D1012210E0274E1436B14254
:100BA00001D110220AE0244E2836B14206D0224A52
:100BB0003C32914201D11A4600E02A461E49091FE3
:100BC0000A602BE0B94213D0614517D0494522D0C5
:100BD00051451DD059451DD0714501D142461AE0FD
:100BE000B14202D14FF0807215E0134EB14201D1F3
:100BF000012210E0104E1436B14201D110220AE059
:100C00000D4E2836B14206D00B4A3C32914201D1FA
:100C10001A4600E02A46074980394A60012180F8D7
:100C20002110002180F82010416B01B18847204637
:100C3000BDE8F09F80000240080402401CB5024657
:100C40004C494D484D4C202A5AD00DDC042A34D052
:100C500005DC4B48012A1AD0022A15D121E0082AC6
:100C600035D0102A10D142E0402A52D0802A59D0E3
:100C70004FF480718A425FD049008A4204D100F06B
:100C800089F990B300206072A07978BB5EE03B4B9D
:100C900001216433CDE90001191FA3F16002081F8F
:100CA00008E0364B02217033CDE90001191FA3F192
:100CB0006B02081F01F018FFE6E704202F4BCDE977
:100CC00000103C33191FA3F13B02081FF2E7082074
:100CD0002A4BCDE900104833191FA3F14602081F23
:100CE00001F002FF206CE064CEE72DE034E010213B
:100CF00000F050F910B10020A071C5E70120FBE71A
:100D0000202100F047F910B10020E071BCE701207C
:100D1000FBE74020194BCDE900103033191F174A6B
:100D2000081FC7E78020154BCDE900105833191F65
:100D3000A3F15502081FBDE700F02CF910B1002007
:100D40002072A1E70120FBE701209CE7E07918B9B8
:100D5000207A08B9607A00B10120A072A07A002838
:100D600006D0BDE81C4040F2DC500146FFF724BE2F
:100D70001CBD0000000801400010014000000020E0
:100D8000000C0140044910B50A68024202D0086014
:100D9000FFF754FF10BD0000140401402DE9F84F87
:100DA000DFF8C8910024A9F1040B23460F2709F1AD
:100DB000040AABF1040ED1E00125A54006EA0502C4
:100DC000AA4276D1DFF8A8C14E68A6EB0C086645AA
:100DD0002BD00DDC032E34D005DC36B3012E19D018
:100DE000022E2FD11BE0112E16D0122E2AD119E07F
:100DF000B8F5881F19D006DCB8F5803F15D0B8F5D6
:100E0000801F1FD111E0B8F5001F0ED0B8F5041FE8
:100E100018D10AE0CB6815E0CB681B1D12E0CB6847
:100E200008330FE0CB680C330CE08B682BB1012B3F
:100E30004FF0080303D0456104E0042302E005619C
:100E400000E00023FF2A01D8064601E000F1040675
:100E50004FEA840501D9A5F12005D6F8008007FAEC
:100E600005FC28EA0C0803FA05F548EA0508C6F867
:100E700000804D68ED0070D53E4DAE6946F001062C
:100E8000AE61AD6924F0030605F0010500953A4D09
:100E900006EB050CDCF80850A607360F07FA06F833
:100EA00025EA0805DFF8D480404503D14FF000085B
:100EB00025E052E0DFF8C880404502D14FF001083C
:100EC0001DE0DFF8C080404502D14FF0020816E077
:100ED000DFF8B480404502D14FF003080FE0DFF89F
:100EE000AC80404502D14FF0040808E0DFF8A08054
:100EF000404502D14FF0050801E04FF0060808FA1E
:100F000006F848EA0508CCF808804D68D9F8006072
:100F1000ED024D4601D5164300E096432E604D6824
:100F2000DAF80060AD02554601D5164300E096435D
:100F30002E604D68DBF80060AD035D4601D51643B9
:100F400000E096432E604D68DEF80060ED037546C4
:100F500001D5164300E096432E60641C0A681646CD
:100F6000E2407FF429AFBDE8F88F0000080401409B
:100F70000000111000100240000001400008014074
:100F8000000C014000100140001401400018014015
:100F9000001C01408068084000D00120704700001C
:100FA00001488068704700001801002002488168ED
:100FB000027811448160704718010020074810B57D
:100FC000016841F010010160032000F075F80F2066
:100FD00000F006F800F024F8002010BD00200240C8
:100FE00070B50D4D04464FF47A712878B1FBF0F0DE
:100FF0000A490968B1FBF0F000F0DCFA48B9102C9E
:1010000007D200222146501E00F036F800206C6006
:1010100070BD012070BD00001801002024010020D7
:101020000C4808B5816941F001018161816901F0D5
:1010300001010091C16941F08051C161C06900F0B6
:10104000805000900448416821F0E06141F0007157
:10105000416008BD0010024000000140002809DB8B
:1010600000F01F02012191404009800000F1E020C2
:10107000C0F8001170470000F0B40E4B1B680C461E
:10108000C3F30223C3F10705042D00D90425191D5C
:10109000072901D2002300E0DB1E012606FA05F134
:1010A000491E214099409E40761E16403143F0BCB7
:1010B00002F0E5BA0CED00E0064900F0070208680E
:1010C0004FF6FF03184040EA0220034A104308602D
:1010D000704700000CED00E00000FA052DE9F04734
:1010E0000F46050061D0434E306800F00700B8425B
:1010F00009D2306820F0070038433060306800F0D3
:101100000700B84251D128683B4C810712D54007EF
:1011100003D5606840F4E06060602878000703D57C
:10112000606840F4605060606068A96820F0F0007A
:10113000084360602878C00728D06868012810D06C
:101140002168022810D0890700292EDA616821F071
:10115000030101436160FFF723FF804641F28839B4
:101160000DE021688903EFE78901EDE7FFF718FF3C
:10117000A0EB0801494502D90320BDE8F08760686B
:10118000696800F00C00B0EB810FEFD1306800F01F
:101190000700B8420BD9306820F0070038433060B0
:1011A000306800F00700B84201D00120E5E7287858
:1011B000400705D56068E96820F4E0600843606096
:1011C0002878000706D56068296920F4605040EA55
:1011D000C100606000F038F86168084AC1F303118B
:1011E000515CC8400649086006480068FFF7F8FEF1
:1011F0000020C2E70020024000100240283F000803
:10120000240100201C0100200448054900684968A9
:10121000044AC1F30221515CC840704724010020F8
:1012200000100240383F000804480549006849683A
:10123000044AC1F3C221515CC84070472401002018
:1012400000100240383F00080E4A51680E4801F075
:101250000C03042B11D0082B0FD10C48C1F383438E
:10126000C903C05C0AD55168084AC1F34041921EC7
:10127000515C054A5043B0FBF1F0704704494843C4
:10128000704700000010024000127A00183F00086A
:1012900000093D002DE9F84F040070D02078C04DC2
:1012A000C00749D06868C0F38100012807D068688A
:1012B000C0F38100022809D16868C00306D52868F8
:1012C000800339D560680028E7D035E06068B0F564
:1012D000803F0BD010B1B0F5A02F11D0286820F4BA
:1012E00080302860286820F4802002E0286840F4DC
:1012F00080302860606890B1FFF752FE06460AE031
:10130000286840F480202860F0E700BFFFF748FE1F
:10131000801B642873D828688003F7D50CE0FFF79A
:101320003FFE064605E000BFFFF73AFE801B64283B
:10133000F0D828688003F7D420789A4E80074FF0C1
:1013400001094FF0000839D5686810F00C0F07D07C
:101350006868C0F38100022809D16868C00306D418
:101360002868800714D52069012808D110E0206979
:10137000B0B1C6F80090FFF713FE074605E00AE19A
:10138000FFF70EFEC01B0228C4D828688007F7D5D7
:101390002868616920F0F80040EAC10028600DE08B
:1013A000C6F80080FFF7FCFD074604E0FFF7F8FDF4
:1013B000C01B022823D828688007F7D420780007AC
:1013C0002CD57948A169D9B1C0F80090FFF7E8FDA4
:1013D000074604E0FFF7E4FDC01B02280FD8686A47
:1013E0008007F7D571484FF4FA510068B0FBF1F06F
:1013F000009000BF0098411E0091FAD20EE080E0FC
:10140000C0F80080FFF7CCFD074604E0FFF7C8FDF9
:10141000C01B022875D8686A8007F7D42078400777
:1014200060D5E8690027C00008D4E86940F0805022
:10143000E861E869012700F0805000905C4801688D
:10144000C90513D40168834641F480710160FFF738
:10145000A7FD824606E000BFFFF7A2FDA0EB0A0051
:1014600064284ED8DBF80000C005F5D5E0680128F7
:101470000AD008B1052813D0286A20F0010028629C
:10148000286A20F0040002E0286A40F00100286287
:10149000E06841F2883B98B1FFF782FD82460BE09D
:1014A000286A40F004002862EEE700BFFFF778FDED
:1014B000A0EB0A0159455AD8286A8007F6D50CE0F6
:1014C000FFF76EFD824605E0FFF76AFDA0EB0A011B
:1014D00059454CD8286A8007F6D41FB1E86920F036
:1014E0008050E861E06988B36968C1F3810102292D
:1014F00044D00228C6F8608004D0FFF751FD0446AE
:1015000038E034E0FFF74CFD074604E0FFF748FD04
:10151000C01B02282BD828688001F7D4206AB0F5B8
:10152000803F05D16868A16820F4003008436860F6
:10153000D4E908010843696821F47411084368601C
:10154000C6F86090FFF72CFD044606E025E000BFDA
:10155000FFF726FD001B022809D828688001F7D56F
:101560001BE000BFFFF71CFD001B022802D903206F
:10157000BDE8F88F28688001F4D40EE00128F7D088
:101580006868226A00F48031914204D1616A00F4F3
:101590007010884201D00120EAE70020E8E700004F
:1015A0000010024000004242800442422401002018
:1015B0000070004010B5401EB0F1807F01D30120C3
:1015C00010BD4FF0E02460610F21601702F057F862
:1015D0000020A06107202061002010BD10B590F808
:1015E0003C20012A22D0012280F83C20CA688C6865
:1015F00022F4407222434C6822F4806222430C6839
:1016000022F4006222430C6922F4805222434C6986
:1016100022F400522243C969002322F480420A4383
:1016200001684A6480F83C30002010BD022010BDE3
:1016300070B590F83C20012A2CD0012480F83C4061
:10164000022280F83D2003685A689D6822F07006E7
:101650000A6832435A60104B02689A420ED00F4B10
:101660009A420BD0B2F1804F08D00D4B9A4205D070
:101670000C4B9A4202D00C4B9A4204D1496825F097
:1016800080031943916080F83D40002180F83C10B0
:10169000084670BD022070BD002C0140003401409E
:1016A0000004004000080040000C004010B5040099
:1016B00003D094F83D0010B107E0012010BD0020D8
:1016C00084F83C00204600F01FF8022084F83D001A
:1016D000211D206801F06EFB012084F8460084F88B
:1016E0003E0084F83F0084F8400084F8410084F80C
:1016F000420084F8430084F8440084F8450084F8EC
:101700003D00002010BD000008B50C4A01680C48DF
:10171000914207D1816941F400618161806900F4DF
:10172000006009E0074A914207D1C16941F0080110
:10173000C161C06900F00800009008BD002C0140A4
:1017400000100240000C004090F83D10012901D02B
:1017500001207047022180F83D1000680E49884240
:101760000ED00E4988420BD0B0F1804F08D00C4902
:10177000884205D00B49884202D00B49884204D1E7
:10178000816801F00701062903D0016841F00101D9
:101790000160002070470000002C0140003401402F
:1017A0000004004000080040000C004070B50446F2
:1017B00090F83C000025012817D0012684F83C60F1
:1017C000022084F83D002068826822F0770222F42B
:1017D0007F4282600868502838D00DDC20284FD026
:1017E00005DC90B3102811D14AE0022070BD3028EA
:1017F00046D040280AD13BE060282FD070280DD079
:10180000B0F5805F03D0B0F5005F12D0012584F8F9
:101810003D60002084F83C00284670BDCB68D1E9CB
:101820000121206801F021FB2068816841F07701E7
:1018300009E0CB68D1E90121206801F016FB20689E
:10184000816841F480418160E1E719E0CA68496834
:10185000206801F0DFFB5021206806E0CA68496873
:10186000206801F0E8FB6021206801F008FBCEE76A
:10187000CA684968206801F0CDFB40212068F4E780
:10188000226801461046F0E72DE9F0410D460400BC
:1018900003D094F83D0018B108E00120BDE8F081C4
:1018A000002084F83C00204600F040F8022084F834
:1018B0003D002068816844F2070291438160211D48
:1018C000206801F077FA226890689169166A2B689F
:1018D000AF69034340F20330814341EA0721A8681E
:1018E000EF6908434FF6FC418843E96840EA072066
:1018F000014328692F6A000140EA073008436968FC
:101900006D6926F0220646EA051529439360226890
:10191000906154F8460B0162012004F81F09E0753C
:101920002076E0762077A0750020B7E710B586B066
:101930000021009101910291039144498A6942F08A
:1019400001028A618A69434C02F001020492026832
:101950003F48B2F1804F23D03F4B9A4249D1CA69E8
:1019600042F00202CA61CA6902F0020204928A6964
:1019700042F008028A61896901F008010491416816
:1019800021F4406141F0E06141F4006141603020A8
:10199000009069464FEA0400FFF700FA06B010BD58
:1019A000CA6942F00102CA61CA6902F001020492E6
:1019B0008A6942F004028A618A6902F00402049290
:1019C0008A6942F008028A61896901F0080104917C
:1019D000416821F4407141F0E06141F4807141605F
:1019E0004FF40040009069461C48FFF7D7F90820E3
:1019F000CEE71B4BC0209A4210D1CA6942F00402C4
:101A0000CA61CA6902F0040204928A6942F00802BB
:101A10008A61896901F008010491B9E7114B9A4282
:101A2000BCD18A6942F400528A618A6902F4005288
:101A300004928A6942F010028A618969009001F07B
:101A40001001049169460848A6E700000010024012
:101A500000000140000C014000040040000801406B
:101A600000080040003401400010014070B590F8BB
:101A70003E60044690F83F5090F8423090F8432082
:101A8000022021B104290ED0012E1BD114E0012E19
:101A900018D1012B16D184F83E0084F842000122AF
:101AA0000021206820E0012D0CD1012A0AD184F800
:101AB0003F0084F8430014E0012D03D1012B01D134
:101AC000012A01D0012070BD84F83E0084F83F0057
:101AD00084F8420084F8430001220021206801F0CC
:101AE000B7F901220421206801F0B2F920680168E9
:101AF00041F001010160002070BD000000B585B01B
:101B000000210091019102910391006810498842DF
:101B10001BD11048816941F04001816180696946AB
:101B200000F0400004904FF42060009002200190EB
:101B300003900948FFF732F90848416821F0C001D5
:101B400041F0E06141F0C001416005B000BD00001E
:101B5000002C01400010024000180140000001402C
:101B600070B5044690F83C0000260D4601280FD0C1
:101B7000012084F83C006AB1042A1DD0082A2FD025
:101B80000C2A3FD00126002084F83C00304670BD6E
:101B9000022070BD206801F07BF92068816941F066
:101BA000080181612068816921F004018161206858
:101BB00081692A69114311E0206801F099F92068D0
:101BC000816941F4006181612068816921F480614B
:101BD0008161206881692A6941EA02218161D2E735
:101BE000206801F0BBF92068C16941F00801C161BA
:101BF0002068C16921F00401C1612068C1692A69B6
:101C0000114311E0206801F0DDF92068C16941F459
:101C10000061C1612068C16921F48061C1612068EF
:101C2000C1692A6941EA0221C161ACE710B504002B
:101C300003D094F83D0010B107E0012010BD002052
:101C400084F83C00204600F01EF8022084F83D0095
:101C5000211D206801F0AEF8012084F8460084F8C8
:101C60003E0084F83F0084F8400084F8410084F886
:101C7000420084F8430084F8440084F8450084F866
:101C80003D00002010BD704710B50446022249B146
:101C900004290ED0082913D094F84100012816D049
:101CA000012010BD94F83E000128F9D184F83E20AF
:101CB0000FE094F83F000128F2D184F83F2008E0BB
:101CC00094F840000128EBD184F8402001E084F82A
:101CD00041200122206801F0BBF813492068134A13
:101CE000884201D0904203D1436C43F400434364E3
:101CF000206888420DD090420BD0B0F1804F08D0C0
:101D00000B49884205D00B49884202D00A498842D3
:101D100004D1816801F00701062903D0016841F070
:101D200001010160002010BD002C01400034014081
:101D30000004004000080040000C00407047000014
:101D4000034A0168914201D100F0B6BA7047000021
:101D500000440040F8B5016804460868CA684B6949
:101D600010F00F0F4FF0000559D003F0010602F4F8
:101D70009077374365D0C10705D0D10503D5616C95
:101D800041F001016164410705D5D90703D0616CB9
:101D900041F002016164810705D5D90703D0616C68
:101DA00041F004016164010707D502F020013143CD
:101DB00003D0616C41F008016164616C00293AD084
:101DC000800604D5900602D5204601F075F92068FA
:101DD0004069616CC0F38010090700D460B32046ED
:101DE00001F043F920684069400621D5206814308D
:101DF00050E8001F21F0400140E80012002AF5D110
:101E0000E06BA8B16D494163E06BFEF77FFE0028EF
:101E100011D0E06B416B01B0BDE8F040084783068C
:101E20000FD593060DD52046BDE8F84001F044B922
:101E30002046FFF785FFF8BD2046FFF781FF656468
:101E4000F8BD266B2023012E7CD1C6067AD5D60696
:101E500078D508684868009048694FF00206400647
:101E600040D5E16B086840680004000CE8D0A28D02
:101E70008242E5D9E085886920282DD020680C3081
:101E800050E8001F21F4807140E80012002AF5D1CB
:101E90002068143050E8001F21F0010140E80012D2
:101EA000002AF5D12068143050E8001F21F04001CD
:101EB00040E80012002AF5D184F8423025632068FA
:101EC0000C3050E8001F21F0100140E80012002AF9
:101ED000F5D1E06BFEF7F7FD6663A08DE18D401A4A
:101EE00081B22AE0A08DE18D401A81B2E08D0028F8
:101EF000A6D00029A4D022680C3252E8000F20F4AA
:101F0000907042E80007002FF5D12068143050E8A7
:101F1000002F22F0010240E80027002FF5D184F8BD
:101F20004230256320680C3050E8002F22F0100268
:101F300040E80023002BF5D166632046FFF7FEFE44
:101F4000F8BDFFE705062BD5150629D594F8410005
:101F50002128F5D1A068B0F5805F01D12069B0B12A
:101F6000206A411C2162216800784860E08C401E94
:101F70000004000CE084E3D12068C16821F08001F6
:101F8000C1602068C16841F04001C160D8E7206AA3
:101F90000088C0F308004860206A801C2062E5E7E2
:101FA0004006CDD55006CBD5CA68204622F0400267
:101FB000CA6084F8413000F063F9C1E75B30000883
:101FC00070B5040004D094F84100002510B106E07B
:101FD000012070BD84F84050204600F023F82420F2
:101FE00084F841002068C16821F40051C160204696
:101FF00001F0C4F82068016921F490410161206872
:10200000416921F02A0141612068C16841F4005111
:10201000C1606564202084F8410084F84200656353
:10202000002070BD70B586B0002400940194029425
:10203000039403684348424E022103220515B3422C
:1020400026D1836943F480438361836903F4804329
:102050000493836943F00403836180693A4E00F07E
:10206000040004900802CDE900010392694630465D
:10207000FEF794FECDE90054694630460294FEF71F
:102080008DFE002211462520FEF7F6FF252038E0C0
:102090002E4EB34239D1836943F0010383618369D2
:1020A00003F001030493836943F020038361836990
:1020B00003F020030493C36943F40033C361C06990
:1020C00000F4003004902248436843F0E06343F09A
:1020D000080343602020CDE900011E4D03926946AC
:1020E0002846FEF75BFE4020CDE9000469462846FD
:1020F0000294FEF753FE002201212620FEF7BCFFCA
:102100002620FEF7ABFF06B070BD134CA342FAD1F8
:10211000C36943F48023C361C36903F48023049338
:10212000836943F0080383618069CDE9005100F0C1
:102130000800CDE9032069460848FEF72FFEE2E7D4
:1021400000380140001002400008014000440040F7
:10215000000001400014014000480040000C014014
:1021600090F84230202B01D00220704721B11AB1E3
:102170000023036301F05EB80120704710B5134AD5
:102180000168914203D1BDE8104000F0ADB810489D
:10219000814219D10F48C17C027D491C01F03F01E9
:1021A000914209D0827C0C4BC47C1A55C174FEF755
:1021B000F7FE08498031086606490122BDE8104053
:1021C00012310648FFF7CCBF10BD000000440040AC
:1021D000003801400000002070030020F4060020B9
:1021E0002DE9F843044690F84100984616460D46FE
:1021F000202802D00220BDE8F88385B17EB10020FE
:102200006064212084F84100FEF7CAFEA68481465E
:10221000E684A0682027B0F5805F02D003E00120AB
:10222000E9E7206910B12E4600250EE000260CE0FB
:102230008021204601F019F8A8B9C6B116F8010BA3
:1022400021684860E08C401EE084E08C4B464FF0F3
:102250000002CDF800800028EAD14FF0400120466E
:1022600001F003F840B184F841700320C3E735F86A
:10227000020BC0F30800E3E784F841700020BAE7DE
:102280007047FEE7C0F3C750FF2801D00120704718
:10229000002070470148006B70470000E4000020F8
:1022A0000148C06A70470000E400002001488069CE
:1022B00070470000E400002082B000280CD00068C5
:1022C0000649884208D1016840680090012204490B
:1022D000044802B0FFF744BF02B07047004400401A
:1022E000E40000203C07002030B400281CD0006827
:1022F0000E49884218D10E488169491C81610278D3
:10230000C1880389491CC9B2994203D1C169491CDA
:10231000C16103E0074BC4881A55C18030BC01225B
:1023200003490548FFF71CBF30BC7047004400401C
:10233000E4000020040400203C07002010B55421D4
:102340000E48FEF761F90E480021C160016141614C
:10235000C18001818161C16141708170C170418121
:102360000171016241628162C16201630146BDE89F
:10237000104001220348FFF7F3BE0000B003002025
:10238000E40000203C07002010B5074C207940B144
:10239000FEF706FE216A401AB0F5FA7F01D8012047
:1023A00010BD002010BD0000E400002070B5084CF6
:1023B000084D02E0214601F039FDA842FADC064D45
:1023C000A84203D9214601F053FBF9E770BD000094
:1023D0000000B44300003443000034C32DE9F0474B
:1023E000884FDFF82482894D9A460C4610287FD00A
:1023F00021DC01287AD0864E042830D00A2876D1F4
:10240000062A74D3208800B201F0BCFB314601F0EB
:1024100005FCE860608800B201F0B4FB314601F0D1
:10242000FDFB2861A08800B201F0ACFB314601F051
:10243000F5FB6861DFE0162877D0262874D03228B3
:1024400055D1102A53D3002004EB800105EB800204
:10245000401C0968C0B211640428F5D3CBE0122AED
:1024600045D32088DFF8AC9100B201F08BFB4946E0
:1024700001F0D4FB2860608800B201F083FB49467C
:1024800001F0CCFB6860A08800B201F07BFB4946FC
:1024900001F0C4FBA860E08800B201F073FB314694
:1024A00001F0BCFBE860208900B201F06BFB314613
:1024B00001F0B4FB2861608900B201F063FB314692
:1024C00001F0ACFB6861A08900B201F05BFB39460A
:1024D00001F0A4FBA861E08900B201F053FB39468A
:1024E00001F09CFBE861208A15E001E07AE078E0E9
:1024F000062A76D3208800B201F044FB394601F069
:102500008DFBA861608800B201F03CFB394601F008
:1025100085FBE861A08800B201F034FB394601F088
:102520007DFB286267E000E00DE0102A68D3002000
:1025300004EB800105EB8002401C0968C0B25162C7
:102540000428F5D357E00C2A5AD326686768D1F8D7
:1025500008903046FFF796FE002851D03846FFF726
:1025600091FE00284CD04846FFF78CFE002847D04B
:10257000294C3046214601F051FB0646214638469B
:1025800001F04CFB07462146484601F047FB044654
:102590002248864234D222498E4231DA87422FD2F3
:1025A0008F422DDA84422BD28C4229DA3046FFF753
:1025B000FDFEC8F8140046463846FFF7F7FE3061C6
:1025C0002046FFF7F3FEF060716969633169C5E980
:1025D0000E100120C6F820A03071F06A401CF06295
:1025E00009E00DE0032A0BD3207805F8500F60783E
:1025F00068708878A870D8F82810491CC8F8281086
:10260000BDE8F0879001C83CE4000020B003002042
:102610006FA18B3A0001003AE12E6542000034C4FC
:10262000000034442DE9F84F00260546DFF8F89005
:1026300001273E4C49E07E2847D1677045E02328BA
:1026400004D07E2804D0002060703EE00220FBE72A
:102650000120F9E7A070052836D3001F80B240287A
:1026600032D80320F0E7E07066810420ECE7A2781E
:102670006389111F89B209F803005B1C98B2CC462C
:102680006081884221D3E07882461044A130C3B2F1
:1026900000204A1E06E000BF1CF80080401C434496
:1026A000DBB280B29042F7D309EB010010F8010CC5
:1026B000984206D192B22B461B495046FFF78EFE38
:1026C00002E0206B401C206366702089E18888420C
:1026D00015D1207920B1206A281AB0F5FA7F0CD9DB
:1026E000606A281A642808D311A0022200680090AA
:1026F00069468020656200F01FF8BDE8F88F0D493B
:102700002089085C2189491CC9B221816178052989
:10271000DAD2DFE801F0070605040300A7E7A2E725
:1027200098E78CE787E7000004050020E40000201C
:1027300026000000040400202DE9FC41134618A4E3
:102740000025D4E90024CDE90024032B0AD803B1E5
:1027500041B15A1DD2B28DF802208DF8030000203D
:102760006C4607E00120BDE8FC810E5C2718401C88
:102770003E71C0B29842F8D30020511E04E0235CA1
:10278000401C2B44DDB2C0B28842F8D3A0181423F9
:1027900000F8015C21460448FFF722FDE3E7000052
:1027A0007E230000000000003C07002030B585B00B
:1027B000374800240394816941F0040181618169F3
:1027C00001F004010491816941F00801816181698E
:1027D00001F008010491816941F010018161816972
:1027E00001F010010491816941F04001816180692B
:1027F000284D00F0400004904FF44C70CDE90005E6
:102800000120029069462448FEF7C8FACC20CDE9A1
:102810000005694602942148FEF7C0FA0320CDE97D
:102820000005694602941E48FEF7B8FA002201210D
:102830000620FEF721FC0620FEF710FC00220121F5
:102840000720FEF719FC0720FEF708FC00220121F3
:102850000820FEF711FC0820FEF700FC00220121F1
:102860000920FEF709FC0920FEF7F8FB00220121F0
:102870001720FEF701FC1720FEF7F0FB00220121D4
:102880000A20FEF7F9FB0A20FEF7E8FB05B030BD91
:10289000001002400000311000100140000801400B
:1028A000000C014010B596B000240F9410941194C0
:1028B000129413941C2168461494FDF7A5FE202160
:1028C00007A8FDF7A1FE2C482A4901604721C0E96D
:1028D000011444F61F61C0E9031444618461FEF7EA
:1028E000E5FE08B1FEF7EDF84FF480500F900FA908
:1028F0002148FEF75BFF08B1FEF7E3F81E48FFF73B
:1029000095F908B1FEF7DDF8139413A91A48149449
:10291000FEF78EFE08B1FEF7D4F86020CDE9000482
:102920000294039404940594002269461248069484
:10293000FFF716F908B1FEF7C4F8042269460E48FD
:10294000FFF70EF908B1FEF7BCF807940894099454
:102950004FF400500A94CDE90B4007A906480E94A5
:10296000FEF73CFE08B1FEF7ACF80348FFF7C6F8E7
:1029700016B010BD002C0140440500204FF08041EE
:102980000148FEF76CB800008C05002001490248A0
:10299000FEF765B800040040D40500200149024854
:1029A000FEF75DB8000800401C0600201FB500219E
:1029B00010480091019102910D4A03910260472253
:1029C000C0E901214A1EC0E903218161FEF76EFEC4
:1029D00008B1FEF776F84FF480500090694605483C
:1029E000FEF7E4FE002801D0FEF76BF81FBD0000E3
:1029F000000C00406406002001490248FEF72FB891
:102A000000340140AC0600200C4810B50A490160B2
:102A10004FF4E1314160002181600C22C160C0E9C6
:102A200004128161C161FFF7CBFA002803D0BDE831
:102A30001040FEF746B810BD00380140F4060020F3
:102A40000C4810B50A4901604FF4E13141600021A2
:102A500081600C22C160C0E904128161C161FFF78D
:102A6000AFFA002803D0BDE81040FEF72AB810BD29
:102A7000004400403C0700200C4810B50A490160A2
:102A80004FF4E1314160002181600822C160C0E95A
:102A900004128161C161FFF793FA002803D0BDE8F9
:102AA0001040FEF70EB810BD00480040840700201B
:102AB000FEE7FEE770B5084C084D02E0214601F044
:102AC000B5F9A842FADC064DA84203D9214600F028
:102AD000CFFFF9E770BD00000000B44300003443AD
:102AE000000034C3704700002DE9F04116460F4640
:102AF0000446DDE90601154A98461268556AFEF754
:102B000049FA01281DD03078002818D0386840F2E2
:102B10004C412D1AA5F57A7088420ED8FEF740FA7E
:102B2000C8F80000206878B120682168281AC21708
:102B300000EB527001EBE000206000203070BDE837
:102B4000F0813D600120F9E72560F6E7640600208A
:102B5000A0F57A7140F24D42914205D2A0F2DC53C9
:102B6000A0F2B450502801D8002070474FF4FA72F8
:102B700051421846FDF70EBF70B5EFF3108572B6DF
:102B800010211F4E3046FEF705FAE0B100201D4C23
:102B9000A07120213046FEF7FDF9B0B10020E071B0
:102BA0004FF480713046FEF7F5F980B100202072B5
:102BB0004FF400713046FEF7EDF950B1002060721D
:102BC000A07970B907E00120E1E70120E7E70120E3
:102BD000EDE70120F3E7E07918B9207A08B9607AC7
:102BE00000B10120A07205B962B6A07A002806D013
:102BF000BDE8704040F2DC500146FDF7DDBE70BD1F
:102C000000100140000000200448002101738030C2
:102C100001644164C16981647047000000000020C4
:102C2000704700002DE9F84302222EA12E48FDF73F
:102C3000A0FC2E4C2C4B4FF4FA694FF000080126F3
:102C400040F2DC5528B11878522815D04C2819D0FC
:102C500032E00A226946981CFDF752FC0099097877
:102C600029B9A84203D3484501D8608400E06584AF
:102C700084F81080E6731FE058783D281CD11B4F64
:102C8000243704E058783D2816D1184F26379FB1D5
:102C90000A226946981CFDF733FC0099097829B986
:102CA000A84203D3484501D8388001E0A584E584D3
:102CB0002674E673BDE8F8830DA10B48FDF7CCFC44
:102CC00068B10DA10848FDF7C7FC0028F2D1658462
:102CD000A584E58484F8108084F80F80EAE7658491
:102CE000E4E70000543D00005803002000000020ED
:102CF00053544F50000000004C495645000000005E
:102D000070B5114E0025114C18E00F49207D183187
:102D1000095C207D401C00F03F0020750D290DD07E
:102D2000607C0A2905D0172807D23154401C6074F2
:102D300004E0355408B1FFF775FF6574207DE17C30
:102D40008842E2D170BD000058030020000000203E
:102D5000FEF72CB930B58FB028216846FDF754FC3A
:102D600014210AA8FDF750FC01210804CDE9001048
:102D70000024029402250491CDE907504FF4E0109D
:102D800009906846FEF786FA08B172B6FEE70F2092
:102D9000CDE90A054FF48060CDE90C4002210AA874
:102DA0000E94FEF79BF9002801D072B6FEE70FB033
:102DB00030BD7047F0B50268204C214D214E224FA6
:102DC000224B4FF0804CA04209D0984207D060457A
:102DD00005D0A84203D0B04201D0B84204D122F0BD
:102DE000700E4A6842EA0E02A04209D0984207D00B
:102DF000604505D0A84203D0B04201D0B84203D10B
:102E000022F44075CA682A434D6922F080022A43A1
:102E100002608A68C2620A688262A04201D0984257
:102E200001D109690163012141610169C90703D029
:102E3000016921F001010161F0BD0000002C014099
:102E40000004004000080040000C00400034014035
:102E500010B501F01F030121046A99408C430462FC
:102E6000016A9A401143016210BD10B5846842EABC
:102E7000032224F47F440A432243826010BD826807
:102E800022F070020A4342F007018160704700009F
:102E9000F0B5036A026A22F00102026242688469A4
:102EA000124E24F073050C682C4323F002058B6846
:102EB0002B430D4DA84201D0B04205D123F00807A5
:102EC000CB683B4323F00403A84201D0B04205D1B4
:102ED0004D6922F4407215438A692A434260846135
:102EE000496841630362F0BD002C01400034014099
:102EF000F0B5026A036A23F0100303624368846931
:102F00000D6824F4E64444EA05248D6822F020028A
:102F100042EA05120F4D104EA84201D0B04206D130
:102F2000CF6822F0800242EA071222F04002A84253
:102F300001D0B04207D14D6923F4406343EA8503D1
:102F40008D6943EA85034360846149688163026255
:102F5000F0BD0000002C014000340140F0B5026AD1
:102F6000036A23F4807303624368C46922F4007225
:102F700024F073050C68124E2C438D6842EA05223A
:102F80000E4DA84201D0B04206D1CF6822F40062B3
:102F900042EA072222F48062A84201D0B04207D15F
:102FA0004D6923F4405343EA05138D6943EA051341
:102FB0004360C4614968C1630262F0BD002C0140F6
:102FC0000034014030B5046A026A22F48052026281
:102FD0004268C3690D6823F4E64343EA05238D681C
:102FE00024F4005444EA0534084DA84202D0084DA8
:102FF000A84204D14D6922F4804242EA851242601F
:10300000C36149680164046230BD0000002C0140C6
:103010000034014010B5036A046A24F0010404621C
:10302000846924F0F00444EA021423F00A020A43FB
:103030008461026210BD10B5036A046A24F01004B2
:103040000462846923F0A00324F4704444EA023249
:1030500043EA01118261016210BD10B5406A00218E
:10306000C185C184FEF76CFE10BD01680C3151E8CA
:10307000002F22F4907241E80023002BF5D1016863
:10308000143151E8002F22F0010241E80023002B07
:10309000F5D1016B012909D101680C3151E8002FEC
:1030A00022F0100241E80023002BF5D1202180F806
:1030B000421000210163704708B590F842102229A0
:1030C00001D0022008BD82684FF480539A4201D19A
:1030D000016921B1816A9A421BD04AB10AE00268B3
:1030E000816A5268C2F308020A80816A891C08E07A
:1030F000026972B10268526802F07F020A70816A46
:10310000491C8162C18D491E0904090CC18503D087
:103110001BE002685268F1E70168CA6822F02002E9
:10312000CA600168CA6822F48072CA6001684A698C
:1031300022F001024A61202180F8421000214163FF
:10314000026B012A03D0FFF719F8002008BD0163C4
:1031500001680C3151E8002F22F0100241E80023F1
:10316000002BF5D101680A68D20602D50A684968C1
:103170000091818DFEF7E2FDE7E7000070B504469F
:1031800000680169E26821F440511143016121693D
:10319000A0680843616908432168CA6841F20C636A
:1031A0009A430243CA6020684169A26921F44071D0
:1031B000114341611E492068884202D1FEF734F86C
:1031C00001E0FEF721F800EBC00101EB001260689E
:1031D00064218000B2FBF0F3B3FBF1F36FF018064B
:1031E0007343B2FBF0F5B2FBF0F605EB8305322337
:1031F00003EB0515B5FBF1F5B6FBF1F605F0F005AF
:1032000005EB0615B2FBF0F6B2FBF0F0B0FBF1F007
:103210006FF01802504306EB800003EB0010B0FB88
:10322000F1F0216800F00F002844886070BD0000B4
:103230000038014081628285C285002141642221DB
:1032400080F84210016921B10168CA6842F48072B5
:10325000CA6001684A6942F001024A610068C168B7
:1032600041F02001C160002070472DE9F8439846E5
:1032700017460D460446089E24E0701C22D0FDF738
:103280008FFEA0EB0800B0421AD8CEB12068C1680A
:10329000490717D5802D15D0402D13D00168C9439B
:1032A00009070FD401680025406800902046FFF709
:1032B000DCFE0820606484F840500120BDE8F883FB
:1032C0000320FBE72068006835EA000004D00020F6
:1032D000B842D2D00020F1E70120F9E70148FEF71B
:1032E00039BD0000F40600200148FEF733BD0000A0
:1032F0003C07002010B50068406A13880C68C31AA8
:103300001BB223440B60108010BD00002DE9F0417A
:10331000002800DA40423C2800DB11B1FFF774FCC2
:1033200015E03C49002001F180040A7B92B1A36CB6
:10333000E269934227D0A264D4E90C231A4402EB39
:10334000D2725210B2F5967F0BDA206460640020CE
:10335000BDE8F08101220A7320646064E069A06422
:10336000F5E7487B88B1FFF70FF870B12A4801688C
:10337000E06C00F05BFDFFF79DFBB0F1804F02DCDD
:10338000B0F1404F01D9606CE2E7D4E90C01461A74
:1033900006F14F009F2800D20026304600F0F2FBD5
:1033A0008046216C00F064FB05461C48854202DC27
:1033B0001B48854200D905461A49284600F02EFCD4
:1033C00007464046184900F029FC394600F050FBFA
:1033D0001649884205DD1E206064002EB8DA256497
:1033E000B6E71349884205D96FF01D006064002ECE
:1033F000F5DCADE74FF07C51256410F1FF4F02D2B0
:1034000000F036FB01E000F011FD00F09FFB60646E
:103410009EE7000000000020F00000200050C3469E
:103420000050C3C617B7513AA69B443C0000F04178
:103430000000F0C12DE9F047414CE169461A142E15
:103440007BD3A4F18001E061486FE268801A8A6F43
:103450002369D51ACA6F6369A2EB03092268A369BD
:10346000A2EB03084A6FE2608A6F2261C96F616153
:103470002168A16140F21A31FDF783FA074640F254
:1034800065312846FDF77DFA384400EBD0704510D1
:1034900040F2F5314846FDF774FA07464FF477716C
:1034A0004046FDF76EFA384440F2C64100EBD0705A
:1034B0004D434010E91705EB915100EB80008A1253
:1034C000800090FBF6F102EB8200800090FBF6F2A8
:1034D000236AC81AC51700EB157003EB201323628B
:1034E000656A501BC61700EB167005EB20154FF4EC
:1034F0007A704343142093FBF0F3656263604FF4EA
:103500007A735D4395FBF0F3A360A36AC91A01EBDC
:10351000D17103EB6101A162E36AD21A02EBD272AC
:1035200003EB62024FF47A73594391FBF0F1C4E963
:103530000B215A4392FBF0F06063BDE8F087000076
:10354000800000202DE9F0471646002800DA4042AE
:10355000424D00274FF0010805F18004002800DDEE
:1035600021B1687BF0B3A87BE8B347E0AF73FEF707
:103570000BFFC8B3697B3A48B9B3A16D711A28290A
:1035800069D3A6650168E06C00F050FCFFF792FA81
:1035900006464FF07C59B0F13F4F02D24E4500DA5B
:1035A00000263146206D00F063FA05462D48DFF80D
:1035B000B880854202DC2D48854200D905462C4959
:1035C000304600F02BFB06462A49284600F026FB31
:1035D000314600F02BFC064664274046314600F099
:1035E000E9FA03E005E006E011E018E01DD26765A6
:1035F00031E0104608E085F80E80E6656765E06D0D
:10360000301A962808D33046FDF7F4F904E0687BB9
:10361000002802D0C4E915760020BDE8F08785F8BF
:103620000D800068C4E91307F4E71348314600F041
:10363000C1FB02D26FF063000CE0256516F1FF4F6D
:103640004946304602D200F013FA01E000F0EEFBEA
:1036500000F07CFA6065606DDFE70000000000208C
:10366000F00000200000C8430000C8420000C8C3AA
:1036700000002040CDCC4CBD0000C8C2FEE70907C9
:10368000090E002804DB00F1E02080F800147047E8
:1036900000F00F0000F1E02080F8141D7047303872
:1036A0000A2801D201207047002070478CB0FDF736
:1036B00085FCFFF74FFBFFF779F8FFF7A5F9FFF758
:1036C000BFF9FFF7D9F9FFF771F9FFF757F9FFF7DE
:1036D000E9F8FFF75BF9FFF761F9FFF78DF9FEF7FE
:1036E0002DFEB64840F2DC5701684F6300688763DF
:1036F0000021B248FEF7C8FA0421B048FEF7C4FA28
:10370000AF4E0120F072FFF737FA39460846FDF751
:1037100053F9AC48FEF718F8AB480025006845623D
:10372000AA4800684562AA4800684562A94800683E
:1037300045627567B567F56706F180042560F58217
:1037400035837583B5833C219F48FEF78FF93C2173
:103750009E48FEF78BF93C219D48FEF787F93C21F6
:103760009C48FEF783F9E56025616561A561FDF779
:1037700017FCE0610122A4F16E019748FEF7F0FC0E
:103780004FF4FA7908B172B6FEE7B046FDF708FCCF
:103790000546FFF7F1F92846FEF744FFFFF7B0FAB8
:1037A00098F80F00464630B1206E281A484502D9D5
:1037B0007784B784F784824A8348163202F15E0127
:1037C000FFF798FD7E4A8148183202F16001FFF749
:1037D00091FD7B4A7E481A3202F16201FFF78AFDB1
:1037E000774A7C481C3202F16401FFF783FD2846CA
:1037F000FFF720FEB07A38B12846FDF7FBF8FFF757
:1038000003FA3846394642E0F17B59B1307C38B191
:103810002846FDF7EFF8FFF7F7F9B18CF08C36E0AA
:10382000708C00E0306C09B13E4600E0B66AFFF7EC
:103830008FF982463046FFF78BF9060003D07042BD
:10384000B346029002E0D346CDF808A02A4631469E
:103850005046FFF777FE069031465046FFF756FD7B
:10386000BAF1000F01DB012101E04FF0FF31029AB4
:1038700001FB002301FB10B006995A18461A1046A6
:10388000FDF790F882463046FDF78CF85146FDF77B
:1038900093F8A06B281A642816D3FEF7FBFC824627
:1038A000FEF7FEFC0646FEF701FD024633464BA13D
:1038B0004F48CDF800A0FCF7BDFC82B214234C4960
:1038C0004548FEF78DFCA563FEF75EFD0028E06B22
:1038D000A5EB000057D01428FFF458AF4548006806
:1038E000FDF736F8099044480068FDF731F800907C
:1038F00042480068FDF72CF80190FDF724F8642693
:1039000090FBF6F106FB110104910198FDF71BF8FD
:1039100090FBF6FA0098FDF716F890FBF6F106FB1F
:10392000110005900098FDF70EF890FBF6F002905C
:103930000998FDF708F890FBF6F106FB110B0998C2
:10394000FDF701F890FBF6F301980499002801DADD
:103950002D2600E02B26059803AA069182E8410453
:103960000099002901DA2D2200E02B22CDE900B2D6
:103970000998002801DA2D2200E02B2220A12A48F4
:10398000FCF758FC11E04845A6D3FEF783FC8246BD
:10399000FEF786FC0646FEF789FC0246334623A165
:1039A0002148CDF800A0FCF745FC82B20A231E494D
:1039B0002348FEF715FCE563E8E600004405002017
:1039C00000000020640600208C050020D4050020A3
:1039D0001C060020AC060020F40600202D313131F9
:1039E000312C256C752C256C752C256C750D0A00F9
:1039F00028010020F0000020F4000020F800002042
:103A00002563256C642E2530326C642C2563256C6F
:103A1000642E2530326C642C2563256C642E253091
:103A2000326C642C330D0A00E80200202D3333334E
:103A3000332C256C752C256C752C256C750D0A00A6
:103A40008407002010B500290AD00878002807D084
:103A500005487844FCF700FE002801D0002010BD86
:103A60000248784410BD0000220500001A0500003D
:103A700090EA010F48BF81F0004100F1DE81421A57
:103A80003CBF801A89184FEAD0524FF07F4C1CEA95
:103A9000410FA2EBD15318BF9CEA026F00F03B80AC
:103AA0004FF0004C4CEA00204CEA012121FA03FCC3
:103AB00010EB0C0C1ED202F1FF325FEA1C2040EB2F
:103AC000C25038BF70471CF07F0F4FEA400C18BF40
:103AD000BCF17F4F38BF7047C3F12003994008BF46
:103AE00020F00100BCF17F4F38BF7047A0F1C0400B
:103AF00000F05BB94FEA3C00000A40EBC25028BF1F
:103B00001CF0FF0F4FEA400CE6D018BFBCF17F4F0E
:103B100038BF7047EAE79CEA026F05D010EA5C0FF5
:103B200008BF00F00040704710B500F0F8F800BF83
:103B300064FBBE3E401058BFC0F14040491058BF22
:103B4000C1F140418142EFF30080704741000B0E0C
:103B5000D3F19E0208D950F400034FEA032323FA5D
:103B600002F048BF4042704710B500F0D8F800BFDF
:103B700049922480002070476FF0004282EA2000C2
:103B80007047000010F0004148BF4042B0FA80F397
:103B900010FA03F2C3F19D030BD051EAC35101EBBC
:103BA0001220530638BF704700F1010008BF20F013
:103BB0000100704750EA010C00F113801CF5000F62
:103BC00058BFBCF5000F01D48842704707D710F5E5
:103BD000000F58BF11F5000F15D488427047894275
:103BE00070471CF5000F04D5BCF5000FF7D58142D6
:103BF00070474FF0807C1CEB400F38BF1CEB410F2F
:103C000001D28142704710B500F089F89224490032
:103C10004FF000504FF08051FFF78CBF4FF47F0CF6
:103C20001CEAD0121EBF1CEAD11392EA0C0F93EAD1
:103C30000C0F00F0478090EA010F48BF42F48072F9
:103C40004FF0004C4CEA00204CEA012102EB030249
:103C5000A0FB0113A2F50002002918BF43F00103E5
:103C60005B0028BF4FEA330342EB22425FEA132C8A
:103C70004CEBC2502EBFBCEB436FB2F57C0F7047CC
:103C80004FEA036CBCF1004F08BF20F00100B2F511
:103C90007C0F38BF70470BD582F0FF0212F5803FD2
:103CA000C8BF704700F1C040D8BF00F00040704767
:103CB00000F5000C5FEA4C0C48BF7047B0F1C04003
:103CC00000F073B890EA010F0CEAD11348BF42F438
:103CD0008072624538BF634504D280EA010000F07B
:103CE0000040704710B500F01AF800BF8900013E8F
:103CF00000F007B800F009B85FEA410C5FEA1C6CFD
:103D000008D080EA010000F050B85FEA400C5FEA9A
:103D10001C6CF6D14FF00040A0F5800070470EF10A
:103D2000020E2EF0030E5EF8044B244204D44FEA38
:103D30004102B2F17F4F11D84FEA4003B3F17F4FF8
:103D40000CD80ED14FEAD07CB2F17F4F0CEB4C0C6B
:103D50000CF1020C08BF4CEBD17C04E04FF0080CD6
:103D600001E04FEAD17C0CEB4C0324FA03F404F09D
:103D70000704B4F1040C06D20EEB840CBDE810402D
:103D80004CF0010C6047DFE80CF0070802024FF02E
:103D90000040A0F5800010BD0846420018BFD2F1D7
:103DA000807288BF00F0004010BDFF2141EAD05072
:103DB000C005704751EA000C00F113801CF5000F9C
:103DC00058BFBCF5000F01D48142704707D711F5E9
:103DD000000F58BF10F5000F15D48142704789427B
:103DE00070471CF5000F04D5BCF5000FF7D58842CD
:103DF00070474FF0807C1CEB410F38BF1CEB400F2D
:103E000001D28842704780EA010081EA000180EA1D
:103E10000100FFF7F8BE80F0004090EA010F7FF547
:103E20002EAE81F0004100F008B8000090EA010FCA
:103E300048BF81F000413FF522AE421A04D882F01B
:103E40000042A0EB020011444FEAD0524FF07F4CE9
:103E50001CEA410FA2EBD15318BF9CEA026F4AD073
:103E60004FF0004C4CEA00204CEA012121FA03FCFF
:103E7000B0EB0C0C0FD412F0FE0F36D05FEA4C0002
:103E80001DD5001240EBC25038BF70471CF03F0FE9
:103E900018BF70470BE0A2F101025FEA1C2040EB63
:103EA000C25038BF70471CF07F0F18BF7047C3F176
:103EB0002003994014BF401E20F001007047800885
:103EC0004FEA122308BF7047B0FA80FCA2EB0C0245
:103ED000CCF1280C60FA0CF093EA122F04BF00EB2F
:103EE000C25070474FEAC3707047130A5FEADC1094
:103EF00008BF7047F6E79CEA026F04D010EA5C0F37
:103F000008BF0020704710B5FFF709FF40DFF63EFD
:103F100081F000407047010202030405060708090A
:103F20000A0B0C0D0E0F1010000000000000000026
:103F3000010203040607080900000000010203044F
:103F40000400000800000000000000020001000062
:103F5000100000008440000800000020280100003C
:103F60006C010008AC41000828010020080D000089
:103F7000880100081001000043000000F8FFFFFF67
:103F8000004040404040404040404141414141406C
:103F90004040404040404040404040404040404021
:103FA00040050202020202020202020202020202B0
:103FB00002202020202020202020200202020202B5
:103FC000020290909090909010101010101010100D
:103FD0001010101010101010101010100202020219
:103FE000020288888888888808080808080808085D
:103FF0000808080808080808080808080202020259
:104000004000000000000000000000000000000070
:1040100000000000000000000000000000000000A0
:104020000000000000000000000000000000000090
:104030000000000000000000000000000000000080
:104040000000000000000000000000000000000070
:104050000000000000000000000000000000000060
:104060000000000000000000000000000000000050
:104070000000000000000000000000000000000040
:104080000000000000000000000000000000000030
:104090000000000000000000000000000000000020
:1040A0000000DC05DC05DC05DC05DC0500000000AB
:1040B0000000000000000000000000000000000000
:1040C00000000000000000000000000000000000F0
:1040D00000000000000000000000000000000000E0
:1040E00000000000000000000000000000000000D0
:1040F00000000000000000000000000000000000C0
:1041000000000000000000000000000000000000AF
:10411000000000000000000000000000000000009F
:10412000000000000000000000000000000000008F
:10413000000000000000000000000000000000007F
:10414000000000000000000000000000000000006F
:10415000000000000000000000000000000000005F
:10416000000000000000000000000000000000004F
:10417000000000000000000000000000000000003F
:10418000000000000000000000000000000000002F
:10419000000000000000000000000000010000001E
:0C41A000100000000000000000127A0077
:0400000508000131BD
:00000001FF
