:020000040800F2
:100000000000012069250008C91E0008CB1E000859
:10001000CD1E0008CF1E0008D11E00080000000001
:10002000000000000000000000000000D31E0008D7
:10003000D51E000800000000D71E0008D91E0008C9
:10004000B1250008B1250008B1250008B125000838
:10005000B1250008B1250008DD1E0008E31E0008D8
:10006000E91E0008EF1E0008F51E0008B125000873
:10007000B1250008B1250008B1250008B125000808
:10008000B1250008B1250008B1250008B1250008F8
:10009000B1250008B1250008B1250008FB1E0008A5
:1000A000B1250008B1250008B1250008B1250008D8
:1000B000B1250008B1250008B1250008B1250008C8
:1000C000B1250008B1250008B1250008B1250008B8
:1000D000B1250008251F0008311F0008B1250008C0
:1000E000B1250008B1250008B1250008B125000898
:1000F000B1250008B1250008B1250008B125000888
:10010000B1250008B1250008B1250008B125000877
:10011000B1250008B1250008B1250008B125000867
:10012000B1250008B1250008B1250008B125000857
:1001300000000000000000000000000000000000BF
:1001400000000000000000000000000000000000AF
:10015000000000000000000000000000000000009F
:10016000000000000000000000000000000000008F
:10017000000000000000000000000000000000007F
:10018000000000000000000000000000000000006F
:10019000000000000000000000000000000000005F
:1001A000000000000000000000000000000000004F
:1001B000000000000000000000000000000000003F
:1001C000000000000000000000000000000000002F
:1001D000000000000000000000000000000000001F
:0401E0005FF8E0F1F3
:1001E40010B5054C237833B9044B13B10448AFF36D
:1001F40000800123237010BD68000020000000006F
:100204001847000808B5034B1BB103490348AFF373
:10021400008008BD000000006C00002018470008A2
:1002240010F8012B11F8013B012A28BF9A42F7D09C
:10023400D01A70474FF0FF0C1CEAD0521EBF1CEAC4
:10024400D15392EA0C0F93EA0C0F6FD01A4480EA50
:10025400010C400218BF5FEA41211ED04FF0006339
:1002640043EA501043EA5111A0FB01310CF0004065
:10027400B1F5000F3EBF490041EAD3715B0040EA8B
:10028400010062F17F02FD2A1DD8B3F1004F40EB5B
:10029400C25008BF20F00100704790F0000F0CF02E
:1002A400004C08BF49024CEA502040EA51207F3AF2
:1002B400C2BFD2F1FF0340EAC250704740F40000CD
:1002C4004FF00003013A5DDC12F1190FDCBF00F0BE
:1002D40000407047C2F10002410021FA02F1C2F16C
:1002E400200200FA02FC5FEA310040F1000053EA08
:1002F4004C0308BF20EADC70704792F0000F00F056
:10030400004C02BF400010F4000F013AF9D040EA5B
:100314000C0093F0000F01F0004C02BF490011F4EF
:10032400000F013BF9D041EA0C018FE70CEAD153ED
:1003340092EA0C0F18BF93EA0C0F0AD030F0004C6D
:1003440018BF31F0004CD8D180EA010000F0004021
:10035400704790F0000F17BF90F0004F084691F0DF
:10036400000F91F0004F14D092EA0C0F01D1420219
:100374000FD193EA0C0F03D14B0218BF084608D1E2
:1003840080EA010000F0004040F0FE4040F400002C
:10039400704740F0FE4040F44000704780F0004059
:1003A40002E000BF81F0004142001FBF5FEA410349
:1003B40092EA030F7FEA226C7FEA236C6AD04FEA49
:1003C4001262D2EB1363C1BFD2184140484041408E
:1003D400B8BF5B42192B88BF704710F0004F40F440
:1003E400000020F07F4018BF404211F0004F41F45C
:1003F400000121F07F4118BF494292EA030F3FD028
:10040400A2F1010241FA03FC10EB0C00C3F120033A
:1004140001FA03F100F0004302D5494260EB4000C9
:10042400B0F5000F13D3B0F1807F06D340084FEA34
:10043400310102F10102FE2A51D2B1F1004F40EB29
:10044400C25008BF20F0010040EA03007047490091
:1004540040EB0000013A28BFB0F5000FEDD2B0FA2E
:1004640080FCACF1080CB2EB0C0200FA0CF0AABF51
:1004740000EBC25052421843BCBFD04018437047EF
:1004840092F0000F81F4000106BF80F400000132F5
:10049400013BB5E74FEA41037FEA226C18BF7FEACC
:1004A400236C21D092EA030F04D092F0000F08BF0E
:1004B4000846704790EA010F1CBF0020704712F0F5
:1004C4007F4F04D1400028BF40F00040704712F134
:1004D40000723CBF00F50000704700F0004343F099
:1004E400FE4040F4000070477FEA226216BF0846CF
:1004F4007FEA23630146420206BF5FEA412390EA92
:10050400010F40F4800070474FF0000304E000BF87
:1005140010F0004348BF40425FEA000C08BF704738
:1005240043F0964301464FF000001CE050EA0102FC
:1005340008BF70474FF000030AE000BF50EA010211
:1005440008BF704711F0004302D5404261EB4101FE
:100554005FEA010C02BF84460146002043F0B64323
:1005640008BFA3F18053A3F50003BCFA8CF2083A48
:10057400A3EBC25310DB01FA02FC634400FA02FC51
:10058400C2F12002BCF1004F20FA02F243EB020058
:1005940008BF20F00100704702F1200201FA02FCBA
:1005A400C2F1200250EA4C0021FA02F243EB0200AD
:1005B40008BF20EADC7070474FF0FF3C06E000BF44
:1005C4004FF0010C02E000BF4FF0010C4DF804CDD8
:1005D4004FEA40024FEA41037FEA226C18BF7FEAE8
:1005E400236C11D001B052EA530C18BF90EA010FEA
:1005F40058BFB2EB030088BFC81738BF6FEAE17079
:1006040018BF40F0010070477FEA226C02D15FEA14
:10061400402C05D17FEA236CE4D15FEA412CE1D080
:100624005DF8040B704700BF844608466146FFE747
:100634000FB5FFF7C9FF002848BF10F1000F0FBD29
:100644004DF808EDFFF7F4FF0CBF012000205DF822
:1006540008FB00BF4DF808EDFFF7EAFF34BF0120A7
:1006640000205DF808FB00BF4DF808EDFFF7E0FF40
:1006740094BF012000205DF808FB00BF4DF808ED91
:10068400FFF7D2FF94BF012000205DF808FB00BFF4
:100694004DF808EDFFF7C8FF34BF012000205DF8D6
:1006A40008FB00BF4FEA4002B2F1FE4F0FD34FF0F8
:1006B4009E03B3EB12620DD94FEA002343F00043CB
:1006C40010F0004F23FA02F018BF404270474FF079
:1006D4000000704712F1610F01D1420205D110F000
:1006E400004008BF6FF0004070474FF000007047B3
:1006F40070B5002488B0394B07949A69012542F0FB
:1007040004029A619A69364E02F004020092009A39
:100714009A6904A942F008029A619A69314802F080
:1007240008020192019A9A6942F010029A619A6948
:1007340002F010020292029A9A6942F040029A610F
:100744009B69069503F040030393039B4FF44C739A
:10075400CDE9043602F064F8CC2304A92248CDE99B
:100764000436069402F05CF8032304A91F48CDE97B
:100774000436069402F054F822462946062001F075
:1007840071FF062001F09EFF22462946072001F052
:1007940069FF072001F096FF22462946082001F050
:1007A40061FF082001F08EFF22462946092001F04E
:1007B40059FF092001F086FF22462946172001F03F
:1007C40051FF172001F07EFF224629460A2001F03E
:1007D40049FF0A2001F076FF08B070BD0010024006
:1007E400000031100010014000080140000C0140DD
:1007F40008B554220021174803F0ECFA0023164AE6
:1008040016491360164A17481360174A13600023E9
:10081400164A1380164A1380164A1360164A136048
:10082400164A1370164A1370164A1370164A138028
:10083400164A1370164A1360164A1360164A136058
:10084400164A1360164A13600122BDE8084003F0FB
:1008540016BA00BFF00100204C020020EC01002079
:1008640048020020C807002044020020EA000020BB
:10087400E8000020E4000020E0000020DE0000206A
:10088400DD000020DC0000209A00002098000020F9
:1008940094000020900000208C000020880000209C
:1008A4008400002010B410B30268124B9A421ED187
:1008B400114A1249136801331360114B114A1C7811
:1008C400138809880133DBB289B28B4209D10E4AFD
:1008D400136801331360012209490C4810BC03F06A
:1008E400CEB911880A4889B244541380F3E710BC86
:1008F400704700BF00440040E4000020E8000020EE
:10090400EC010020EA000020E0000020C8070020DD
:10091400EC00002082B080B10368094A93420CD1F4
:10092400002201921A680749019201225B68064875
:100934000193019B02B003F0A2B902B0704700BF5B
:1009440000440040EC010020C807002008B5074B14
:10095400187848B101F06EFE054B1B68C01AB0F55B
:10096400FA7F8CBF0020012008BD00BF9800002042
:1009740094000020014B1868704700BFE400002079
:10098400014B1868704700BF88000020014B1868AD
:10099400704700BF84000020134673B5002242F262
:1009A4007E34032BCDE9004227D803B129B35A1D65
:1009B400D2B28DF803008DF802200DF103000B4430
:1009C400994215D16D46002429462346501E15F838
:1009D400016B01343344A042DBB2F8D808306844D8
:1009E40000F8083C1423064802F033FF02B070BD3F
:1009F40011F8014B00F8014FE2E70120F6E700BFD0
:100A0400C807002000210A462DE9F04F944B87B017
:100A140093F80080934B944C1D88944B019093F869
:100A24000090934B03911B7800919248068892485A
:100A3400B6B2008880B2864240F01C8209B189496E
:100A44000D80039911B1864981F80080009911B194
:100A5400864981F800900AB1854A1370874B1B7848
:100A640033B1874B019A1B68D31AB3F5FA7F0ED9B9
:100A7400844A01991368CB1A632B08D92623116081
:100A84008020022205A9ADF81430FFF785FF07B0D6
:100A9400BDE8F08F7E28C8D101221346C5E723287C
:100AA40000F0DB81A0F17E02534253410122BCE7F6
:100AB400431F3F2B4FF0010381461A4600932FD862
:100AC4000323B2E7A9F104016E1CB6B289B28E42C7
:100AD40002966055C0F0C481002009EB08035F3B17
:100AE400DBB24A1E81B28A4200F101001AD8A25C2C
:100AF4009A4240F0B081A9F10503B8F1100F9BB2FE
:100B040000F0978012D8B8F1040F26D0B8F10A0F7C
:100B14006FD0B8F1010F00F090810121029D0122F4
:100B2400002382E7615C0B44DBB2DBE7B8F1260FFC
:100B340000F0B480B8F1320F00F07281B8F1160FF2
:100B4400EBD10F2BE9D9504B22685A6262689A6242
:100B5400A268DA62E2681A6366E0112BDDD9B4F99F
:100B64000000FFF7D5FC4949FFF764FB464D2860B8
:100B7400B4F90200FFF7CCFC4449FFF75BFB686063
:100B8400B4F90400FFF7C4FC4049FFF753FBA86025
:100B9400B4F90600FFF7BCFC3D49FFF74BFBE860E6
:100BA400B4F90800FFF7B4FC3949FFF743FB2861A7
:100BB400B4F90A00FFF7ACFC3549FFF73BFB686169
:100BC400B4F90C00FFF7A4FC3249FFF733FBA8612A
:100BD400B4F90E00FFF79CFC2E49FFF72BFBE861EC
:100BE400B4F91000FFF794FC2A49FFF723FB2862AD
:100BF4001AE0052B91D9B4F90000FFF789FC2449C8
:100C0400FFF718FB204DE860B4F90200FFF780FC01
:100C14001F49FFF70FFB2861B4F90400FFF778FCC4
:100C24001B49FFF707FB68611B4A13680133136014
:100C340073E7052B7FF671AFB4F90000FFF768FC8A
:100C44001449FFF7F7FA104DA861B4F90200FFF751
:100C54005FFC1049FFF7EEFAE861B4F90400C1E75C
:100C6400DC0000209A0000209C000020DD00002011
:100C7400DE000020E8000020EA00002098000020A8
:100C84009400002090000020F00100200001003AB0
:100C94006FA18B3A9001C83C8C0000200B2B7FF68F
:100CA4003CAF206800F0FF43B3F1FF4F3FF435AF92
:100CB400666806F0FF43B3F1FF4F3FF42EAFA5681B
:100CC40005F0FF43B3F1FF4F3FF427AF7749FFF738
:100CD400B1FA77490746FFF7DBFC00283FF41DAF64
:100CE40038467449FFF7B6FC00283FF416AF304687
:100CF4006E49FFF79FFA6E490646FFF7C9FC0028C4
:100D04003FF40BAF30466B49FFF7A4FC00283FF4D7
:100D140004AF28466549FFF78DFA65490546FFF794
:100D2400B7FC00283FF4F9AE28466249FFF792FC6D
:100D340000283FF4F2AEDFF880A1DFF880B151461D
:100D44003846FFF7A5FC002846D1DFF874A1DFF888
:100D54006CB151463846FFF77DFC002842D1594B0F
:100D6400DFF854A1DFF854B11F6051463046FFF755
:100D74008FFC00283CD1DFF848A1DFF840B1514690
:100D84003046FFF767FC002838D14F4BDFF828A125
:100D9400DFF828B11E6051462846FFF779FC002889
:100DA40032D1DFF81CA1DFF814B151462846FFF711
:100DB40051FC00282ED1454B019A1D60444B5F63C2
:100DC4009E63DD63434B1A600122434B1A70434A0E
:100DD40013680133136027E738465946FFF7E2FAF0
:100DE4000746ACE738465946FFF7DEFA0746B0E750
:100DF40030465946FFF7D6FA0646B6E73046594616
:100E0400FFF7D2FA0646BAE728465946FFF7CAFA68
:100E14000546C0E728465946FFF7C6FA0546C4E723
:100E24000F2B7FF67AAE2A4B22681A6462685A64E2
:100E3400A2689A64E268DA64F6E6022B7FF66DAE85
:100E4400234B227883F85020627883F85120A278CB
:100E540083F85220E8E6224AE7E601220223E4E589
:100E64000121029DE1E50121804600250A46042373
:100E74000391DAE51B4E1C4F308880B2385C37464C
:100E84003688C0B20136F6B23E80042B3FF647AE38
:100E940001A656F823F000BF990A0008A30A000827
:100EA400B50A00086B0E0008C90A0008E12E654265
:100EB400000034C400003444000034430000B44350
:100EC400000034C344020020480200204C020020E9
:100ED400F0010020940000209800002088000020E9
:100EE40084000020E8000020EC000020EFF31082D2
:100EF40072B60A4B1B7813B140F2DC510846084B1A
:100F04001880084B1980084B1B781BB1074B1B68D2
:100F14005863996302B962B6704700BF6105002047
:100F2400060000200800002060050020380700208B
:100F340000230021084A1370084A1370084A1160FC
:100F4400084A1360084B1A68084B1A60084B18606B
:100F5400084B1860704700BFC9020020C802002077
:100F6400C0020020BC0200204C020020C402002069
:100F7400B8020020B402002000230021054A1370A7
:100F8400054A1160054A1360054B1A68054B1A603F
:100F9400704700BFD8020020D4020020D0020020F5
:100FA4002C050020CC020020F8B5EFF3108472B6B3
:100FB4001021204801F014FDB0FA80F01E4D4009C4
:100FC400202128701B4801F00BFDB0FA80F01B4F64
:100FD40040094FF480713870164801F001FDB0FAF1
:100FE40080F0174E400930704FF40071114801F041
:100FF400F7FCB0FA80F0134B400918702A78AAB9AC
:101004003A789AB932788AB91B78003B18BF012321
:101014000D4ADBB2137004B962B6137843B1BDE86C
:10102400F84040F2DC510846FFF760BF0123EFE7C8
:10103400F8BD00BF001001406505002064050020D4
:101044006305002062050020610500202DE9F041C0
:101054009846174B05461B680F460698BDF81C10AA
:1010640016465C6A01F0BCFC012803D13C60307078
:10107400BDE8F0813378002BFAD03B68E41A40F2E3
:101084004C43A4F57A729A4206D801F0D3FAC8F810
:1010940000002B681BB92C6000233370E8E72A6832
:1010A4002B68A41A48BF073403EBE4032B60F3E76F
:1010B4001806002010B500210446FFF7DFFA50B1EE
:1010C4000B492046FFF7B6F84FF07C51FFF76CF957
:1010D400FFF7E8FA10BD064904F10040FFF7AAF84B
:1010E4004FF07C51FFF760F9FFF7DCFA4042F1E77B
:1010F4000000C8420368134A10B5934203D1BDE807
:101104001040FFF7CFBB104A93421AD10F4A10493F
:1011140013780978013303F03F0399420AD00D484C
:10112400117804780C48C9B24454137001F082FA5F
:101134000A4B18600122BDE810400649084802F035
:101144009EBD10BD00440040003801405102002003
:10115400500200209202002052020020AC02002023
:10116400100800200268034B9A4201D1FFF7D2BB5A
:10117400704700BF0044004010B590B01422002115
:1011840008A802F027FE1422002101A802F022FE82
:1011940002244FF480330122CDE90D43CDE9062327
:1011A4004FF4E01306A80A920F9301F02BFC08B148
:1011B40072B6FEE70F23CDE901344FF48063039048
:1011C400CDE90430214601A801F0DEFD08B172B674
:1011D400FEE710B010BD00002DE9F04F40F2DC54E2
:1011E4003A4D8DB001F008FAFFF7C6FFFFF780FA19
:1011F40001F0B4F801F0CEF801F0E8F800F004FFD3
:1012040000F0EAFE01F038F800F0EEFE00F0F4FE23
:1012140000F022FFFFF7ECFA2B6800215C632846FC
:101224009C6302F0EFF928460125042102F0EAF953
:10123400274BDFF8A0801D70FFF7B6FE214620463D
:101244000024FFF753FE244801F0DAFE234B244F19
:101254001B68244E5C62D8F800303C215C623B6819
:101264001E485C6233685C621F4B1C601F4B1C6031
:101274001F4B1C601F4B1C601F4B1C801F4B1C8092
:101284001F4B1C801F4B1C8001F0E9FE3C21404693
:1012940001F0E5FE3C21384601F0E1FE3C213046F8
:1012A40001F0DDFE184B1C60184B1C60184B1C60D1
:1012B400184B1C6001F0BEF9174B2A4618601749F9
:1012C400174802F0DCFC68B372B6FEE7380700206A
:1012D40060050020A806002018060020F006002063
:1012E40060060020D00500205C0500205805002081
:1012F40054050020500500204E0500204C05002018
:101304004A050020480500203C050020380500203F
:1013140034050020300500202C0500209202002016
:101324001008002001F086F90446FFF73DFE204630
:10133400FFF768FBB04EB14932780B789A4240F01F
:10134400B381AF4B93F800C0BCF1000F0DD0AD4B8F
:101354001B68E31AB3F5FA7F07D940F2DC53AA4AB3
:101364001380AA4A1380AA4A1380AA4BAA491B686D
:10137400DFF8A8E25A6A0B8892B2DEF80000D31AAA
:101384001BB20344CEF80030A54B0A801B68A54964
:101394005A6AA54F0B8892B23868D31A1BB2034419
:1013A4003B60A24B0A801B68A1495A6AA14E0B8874
:1013B40092B23068D31A1BB2034433609E4B0A8046
:1013C4001B689E495A6A9E4D0B8892B22868D31AAC
:1013D4001BB203442B609B4B0A801868201A132805
:1013E40040F28B80DFF86082DEF800201C60DFF8BA
:1013F4005CE2D8F800303968A2EB030BDFF85092B6
:10140400DEF80030D9F80020C91A3368DFF844A2A6
:101414009B1A08932A68DAF800300029A2EB030229
:101424007E4BB8BF49421B683F683668CEF80070EF
:10143400C9F8006040F21A362D6840F26537CAF8E0
:1014440000508BEAEB75A5EBEB7575434FF47A7698
:101454007943B5FBF6F5B1FBF6F1294440F2C645F4
:101464004910694340F2F535C8F80030089B002B59
:10147400B8BF5B426B434FF47775002AB8BF524242
:101484006A43B3FBF6F3B2FBF6F214251A44521086
:101494006A438B1292FBF0F26B4393FBF0F36E48BA
:1014A4006E4E0568511B48BF0F3105EB211531689D
:1014B4000560581A48BF0F3001EB20113220454314
:1014C40031604143664E3560664D2960664D29683A
:1014D400521A02EBD27201EB62012960634D2A6851
:1014E4009B1A03EBD37302EB630300FB01F22B6043
:1014F4005F4943430A605F4A13605F4B1B78002BCC
:1015040000F062812046FFF713FDFFF735FD40F23E
:10151400DC510846594FFFF7E9FC3B68E31A632B9B
:1015240015D9FFF727FA0546FFF72AFA0646FFF70B
:101534002DFA33462A4652490090524802F028FCBC
:10154400142382B24F49504802F083F93C60FFF7FC
:10155400FDF94E4F3B68E31A002800F08D83132BEE
:101564007FF6E0AE4A4B1868FFF7A4FD494B0646E8
:101574001868FFF79FFD484B05461868FFF79AFD6A
:1015840086EAE671002EA1EBE6714FF06406ACBF6B
:101594002B222D22002DACBF4FF02B084FF02D082D
:1015A400002DB8BF6D420028ACBF4FF02B094FF09F
:1015B4002D090028B8BF4042B5FBF6FCB0FBF6FE8F
:1015C400B1FBF6F306FB1E0006FB131106FB1C55CC
:1015D400CDE905E00091CDE90359CDE9018C2F490E
:1015E4002F4802F0D5FB82B20A232D492D4802F080
:1015F40030F93C6096E600BF500200205102002002
:10160400B1020020AC0200200400002002000020EF
:1016140000000020F00600204E0500205C0500209C
:10162400A80600204C050020580500206006002074
:101634004A05002054050020D0050020480500205C
:10164400500500202C0500203C0500203805002012
:101654003405002030050020280500202405002042
:101664004405002040050020200500201C05002022
:1016740018050020140500206105002050030020F7
:101684003D4700085403002010080020DC0200201D
:101694004C02002048020020440200205147000868
:1016A400E0020020800700203378A04ADBB2D25C3D
:1016B40033780D2A03F1010303F03F035FFA82F844
:1016C40033703FF439AE9A4FB8F10A0F3B7873D1B7
:1016D4000022984DEA54002B51D002222846964904
:1016E40002F080FB50BB42460BA9A81C02F046FB4B
:1016F4000B9B924A1978924BD1B9A0F2DC55B5F5FF
:10170400FA7F15D81080197001238E4A13708E4900
:101714008848FEF785FD00283BD140F2DC53874A18
:1017240013808A4A13808A4A13800123844A23E05F
:1017340040F2DC51118000221A70E5E72B78522B1D
:1017440004D16B783D2BE2D1804D05E04C2BDED1EA
:101754006B783D2BDBD17E4D0A227E480BA902F02B
:101764000DFB0B9B764A1B7863B9A0F2DC53B3F5EF
:10177400FA7F07D8288001231370724A137000235C
:101784003B70D8E540F2DC5370490B8070490B8004
:10179400F1E771496748FEF743FD0028EFD140F2B5
:1017A400DC53664A1380694A1380694A1380644B88
:1017B4001870644B1870E2E7162BE0D85A1C3A7084
:1017C4005C4A02F80380B6E5BCF1000F3DD05C4BE7
:1017D4001B784BB12046FFF7ABFBFFF7CDFB5B4B10
:1017E40019885B4B188895E6544B1D8840F2DC53EE
:1017F40040F24C42A5F57A7191422BD8A5F2B4522D
:10180400502A27D9A5F2DC55B5F5FA7FA8BF4FF4C5
:10181400FA7540F24C42A3F57A71914200F240828B
:10182400A3F2DC56A3F2B453502B40F23982B6F53E
:10183400FA7FA8BF4FF4FA7673420893474B1B789C
:101844000BBB2046FFF774FB2BE0454B1D68454B53
:101854001B68CDE70025DCE7434B1E70FFF776F8E5
:101864003E4A00284FD01178404B002955D1012021
:1018740010703F4A10683F4A106000203E4A1060D2
:101884003E4A116044E0384A3D4B117811B90121B8
:101894001C60117000211B68384AE31A952B1160F3
:1018A400CFD80996002785EAE573A3EBE5733B2BB4
:1018B40002DD002E00F0E880FFF75EFB0022002D21
:1018C400B4BF4FF0FF33012353430899099A1944D5
:1018D4003944B1F5FA7FA8BF4FF4FA71D01A294BF5
:1018E400C01B9942B8BF1946B0F5FA7FA8BF4FF4A0
:1018F400FA709842B8BF184601F2DC5100F2DC508D
:1019040089B280B206E613781BB11C4B1860174BE2
:101914001C600026CDE90855C4E71A68A21A272AD4
:1019240032D8164BCDE908551F68BCE75202002097
:101934009302002094020020304700080400002095
:10194400B0020020B102002033470008020000204A
:10195400000000209602002038470008C902002039
:10196400A8050020C8050020C8020020B8020020F5
:101974004C020020C4020020C0020020BC0200204F
:10198400B40200200CFEFFFF1C60A04BA04F19689E
:10199400A04BDFF884821868FEF704FD064639463A
:1019A4003046FEF775FE002854D19C4FDFF868825C
:1019B40039463046FEF74EFE002851D14FF03F41E4
:1019C4003046FEF765FE30B14FF07C513046FEF7ED
:1019D40041FE00B10026DFF848823046D8F80010F6
:1019E400FEF7E2FC8F490746FEF752FE00283DD180
:1019F40038468D49FEF72EFE002839D130468B49F2
:101A0400FEF718FC8A4906463846FEF713FC0146E1
:101A14003046FEF7C9FC87490646FEF71BFE70BB3D
:101A240030468549FEF734FE58BB00213046C8F8DD
:101A34000070FEF719FEE8B131464FF07C50FEF716
:101A4400B1FCFEF72FFE07467C4B0026CDE9085576
:101A54001F6028E730464146FEF7A4FC06469EE791
:101A640030464146FEF7A0FC0646A1E76D4FC5E7A8
:101A74006D4FC3E74FF07C5106F10040DFE7642768
:101A8400E2E76FF06307DFE76D496E4B08781A6889
:101A94006D4B40B90120087000206C491A60086041
:101AA4006B490E600AE71968914202D1684B1A68C3
:101AB40005E7DFF8A081DFF8A0B11A60D8F800309C
:101AC400DBF800201344B3F5167F05DA00225F4BE0
:101AD4001A605F4B1E60F1E6604B1B783BB3FEF768
:101AE40035FF20B3494BDFF830A11968494B18681A
:101AF400FEF758FC814648464549FEF7C9FD0028D3
:101B04004FD1DFF814A148464449FEF7A3FD00284D
:101B14004DD14FF080414846FEF7BAFD0028C5D1AB
:101B24004FF040414846FEF795FD0028BED1DBF852
:101B34000020D8F80030DFF814B19B1A03F14F02EB
:101B44009E2A88BF1E463046FEF7E2FCDBF80010F2
:101B54008146FEF729FC42498046FEF799FD60BBA9
:101B640040464049FEF776FD50BB48463E49FEF7E5
:101B740061FB3E4981464046FEF75CFB0146484610
:101B8400FEF712FC3A498146FEF782FDDFF8C0A059
:101B9400C8B11E23002ECAF800301FDACBF800802B
:101BA4001CE048465146FEF7FDFB8146A3E7484644
:101BB4005146FEF7F9FB8146A5E7DFF8A480D4E798
:101BC400DFF8A080D1E748462A49FEF743FD40B13B
:101BD4006FF01D03002ECAF80030DFDCDAF80020B5
:101BE4006DE600214846CBF80080FEF747FD4FF034
:101BF4007C5138B14846FEF7D7FBFEF753FDCAF8CF
:101C04000000EBE74846FEF7CDFBF6E74C02002068
:101C140000003443C40200200000B443000034C375
:101C2400C00200200000C8430000C8C300002040D8
:101C3400CDCC4C3D0000C8C20000C842BC0200200C
:101C4400D80200202C050020CC020020D402002061
:101C5400D00200201805002014050020C90200202D
:101C64000050C3460050C3C6A69B443C17B7513A24
:101C74000000F0410000F0C1B3F5FA7FFFF452AB6D
:101C8400FEF778FE0546FEF77BFE0646FEF77EFE6F
:101C9400334600902A460649064802F079F8A2E441
:101CA4000026002D7FF4D8AD2E460895C6E500BF6A
:101CB40079470008E0020020202837B501464E4C41
:101CC4007CD02CD8082809D850B1411E072907D840
:101CD400DFE801F0404B06540606065D102865D087
:101CE4002378002B40F08380444B1B78002B7ED15B
:101CF400434B1B78002B7AD1424B1B78003B18BF17
:101D04000123414ADBB213701378002B71D040F2E7
:101D1400DC51084603B0BDE83040FFF7E7B8B0F542
:101D2400807F5CD00BD8402851D08028D8D1374B45
:101D340001900093364A374B3749384812E0B0F5E2
:101D4400007FCDD1364800F04BFEB0FA80F02D4B29
:101D540040093AE00125334B334ACDE90035334994
:101D6400334B3448FFF772F9BAE702202D4B324A5D
:101D7400CDE900303149324B3248F3E70421234B9B
:101D8400314ACDE900313148314B3249EAE7082282
:101D9400314D1E4B2846CDE900323049304B314A93
:101DA400FFF754F92A68304B1A6099E71C4800F091
:101DB40017FEB0FA80F04009207091E7184800F04F
:101DC4000FFEB0FA80F00D4B4009187088E70F4BF6
:101DD40001900093254A264B26492748C2E710481C
:101DE40000F0FEFDB0FA80F0054B4009EDE7012359
:101DF40087E703B030BD00BF6505002064050020FF
:101E040063050020620500206105002000080140F0
:101E14008C050020880500209005002094050020F2
:101E240000100140000C01407C05002080050020CA
:101E340078050020840500206C0500207005002032
:101E44006805002074050020B0050020B8050020B6
:101E5400AC050020B4050020A8050020A40500203E
:101E64009C050020A005002098050020C005002046
:101E7400BC050020C4050020C805002072B6FEE79A
:101E84000E4B82B09A6942F001029A619A6902F09B
:101E940001020092009ADA6942F08052DA61DB6949
:101EA400074A03F080530193019B536823F0E063D6
:101EB40043F00073536002B0704700BF001002404B
:101EC40000000140FEE7FEE7FEE7FEE7FEE770479D
:101ED4007047704700F0A2BB012000F087BD0220CC
:101EE40000F084BD042000F081BD082000F07EBD18
:101EF400102000F07BBD08B5202000F077FD4020C5
:101F040000F074FD802000F071FD4FF4807000F04B
:101F14006DFDBDE808404FF4007000F067BD00009F
:101F2400014801F049BD00BF10080020014801F03C
:101F340043BD00BFC80700200B4A0346116810B513
:101F440009B90A491160106809490A4C0344091B7C
:101F54008B4206D901F058FF0C2303604FF0FF3089
:101F640010BD1360FCE700BFCC050020A8090020C9
:101F74000000012000040000704770B58CB00446D6
:101F84000E461C22002104A801F024FF00254FF670
:101F9400FF73C4E90335032301220393042320467A
:101FA400C4E90065A560A56103A9CDE901550592C1
:101FB400079309920B9301F041F908B1FFF75EFF13
:101FC400204601A9CDE9015501F01EFB08B1FFF738
:101FD40055FF0CB070BD00004FF080410148FFF781
:101FE400CCBF00BFF006002001490248FFF7C5BF7F
:101FF40000040040A806002001490248FFF7BDBFC5
:1020040000080040600600201FB510220021684629
:1020140001F0E0FE47230E480E4AC0E900230023E6
:102024004FF0FF320361C0E90232836101F0AEF880
:1020340008B1FFF723FF4FF4805369460448009327
:1020440001F0E2F908B1FFF719FF05B05DF804FBF0
:1020540018060020000C004001490248FFF78DBF1C
:1020640000340140D005002003680F4A82B0934237
:102074000BD10E4B9A6942F400629A619B6903F496
:1020840000630093009B02B07047094A9342FAD15F
:10209400064BDA6942F00802DA61DB6903F00803EF
:1020A4000193019BEFE700BF002C014000100240A8
:1020B400000C004010B504468EB0102200210AA87E
:1020C40001F088FE4C4B9A6942F001029A619A69C8
:1020D40002F001020092009A2268B2F1804F30D1DE
:1020E400DA694FF4004142F00102DA61DA694348E7
:1020F40002F001020192019A9A6942F004029A6183
:102104009A6902F004020292029A9A6942F0080261
:102114009A619B693A4A03F008030393039B53684B
:1021240023F4407343F0E06343F48073536000236B
:10213400CDE90A130AA90C9300F072FB08230A9351
:1021440022E030498A4225D1DA6942F00202DA619A
:10215400DA6902F002020492049A9A6942F00802CF
:102164009A619B69264A03F008030593059B53680B
:1021740023F4406343F0E06343F4006353600023BB
:102184003022CDE90A230C931F480AA900F048FB2A
:102194000EB010BD1D498A4213D1DA6942F004021F
:1021A400DA61DA6902F004020692069A9A6942F048
:1021B40008029A619B6903F008030793079BC023F5
:1021C400BDE713498A42E3D19A69124842F40052A6
:1021D4009A619A690AA902F400520892089A9A69C3
:1021E40042F010029A619B6903F010030993099B62
:1021F400C0230A93CAE700BF001002400008014050
:102204000000014000040040000C014000080040B0
:10221400003401400010014010B5044686B010227D
:10222400002102A801F0D6FD2268104B9A421BD16E
:1022340003F564439A690E4842F040029A619B692F
:102244004FF4206203F040030193019B022302A98F
:10225400CDE90223059300F0E3FA064A536843F0FC
:10226400E06343F0C003536006B010BD002C01408E
:10227400001801400000014010B596B01022002162
:1022840003A801F0A7FD00241C2221460DEB020047
:10229400CDE9014401F09EFD202221460EA801F063
:1022A40099FD47232B482C4AC0E90544C0E9002383
:1022B40044F61F638460C0E9033400F067FF08B18B
:1022C400FFF7DCFD4FF48053224803A9039301F088
:1022D4009BF808B1FFF7D2FD1E4800F083FF08B158
:1022E400FFF7CCFD00241B4801A9CDE9014401F00E
:1022F4008BF908B1FFF7C2FD60230022154807A936
:10230400CDE90734CDE90944CDE90B440D9401F03E
:1023140019F808B1FFF7B2FD04220E4807A901F02D
:1023240011F808B1FFF7AAFD00234FF40052094841
:102334000EA9CDE90E33CDE9103312931392159300
:1023440001F098F908B1FFF799FD0248FFF764FF1F
:1023540016B010BD38070020002C014008B54FF41A
:10236400E1330A480A4AC0E9002300230C22C0E9E9
:102374000233C0E905230361C36101F03BFA18B1DC
:10238400BDE80840FFF77ABD08BD00BF1008002073
:102394000038014008B54FF4E1330A480A4AC0E95D
:1023A400002300230C22C0E90233C0E905230361A2
:1023B400C36101F01FFA18B1BDE80840FFF75EBD24
:1023C40008BD00BFC80700200044004008B54FF412
:1023D400E1330A480A4AC0E9002300230822C0E97D
:1023E4000233C0E905230361C36101F003FA18B1A4
:1023F400BDE80840FFF742BD08BD00BF80070020CC
:102404000048004010B504468CB01022002108A8F2
:1024140001F0E0FC23684B4A934231D14A4B4FF41C
:1024240000709A6908A942F480429A619A6900246A
:1024340002F480420192019A9A6942F004029A617C
:102444009B6903F004030293029B0223CDE9080372
:1024540003233E480B9300F0E3F94FF480633B48B9
:1024640008A9CDE908340A9400F0DAF925202246B7
:10247400214600F0F7F8252000F024F90CB010BD37
:10248400334A93423CD1304B20219A69314842F07F
:1024940001029A619A69002402F001020392039AEC
:1024A4009A6942F020029A619A6902F02002049229
:1024B400049ADA6942F40032DA61DB69264A03F4E9
:1024C40000330593059B536843F0E06343F008032E
:1024D40053600223CDE90813032308A90B9300F0EA
:1024E4009FF940231B4808A9CDE908340A9400F059
:1024F40097F926202246012100F0B4F82620BBE7F4
:10250400164A9342BAD1104B1548DA6908A942F425
:102514008022DA61DA6902F480220692069A9A69C4
:1025240042F008029A619B694FF4806203F0080349
:102534000793079B0223CDE9082303230B9300F0A1
:102544006FF99BE700380140001002400008014089
:1025540000440040001401400000014000480040D5
:10256400000C0140FFF708FD0B480C490C4A0023FE
:1025740002E0D458C4500433C4188C42F9D3094A35
:10258400094C002301E013600432A242FBD301F0A2
:1025940041FCFEF721FE7047000000206800002087
:1025A400FC48000868000020A4090020FEE70000A1
:1025B40038B50E4B05461A784FF47A73B3FBF2F331
:1025C4000B4A1068B0FBF3F000F08AF8044658B9DF
:1025D4000F2D09D8024629464FF0FF3000F042F88B
:1025E4002046044B1D6038BD0120FCE7100000208C
:1025F4000C00002014000020074A08B513680320CB
:1026040043F01003136000F01BF80F20FFF7D0FF16
:10261400FFF736FC002008BD00200240034A044BAB
:1026240011681B780B441360704700BF58080020E2
:1026340010000020014B1868704700BF58080020A4
:1026440007490302CA6803F4E06322F4E062120457
:10265400120C134343F0BF6343F40033CB60704761
:1026640000ED00E0154B30B5DC68C4F30224C4F17E
:102674000703251D042B28BF0423062D4FF0FF3527
:1026840094BF0024033C05FA03F321EA0303A540A5
:1026940022EA0502A340002843EA0203ACBF00F18A
:1026A4006040074A4FEA0313DBB2ABBF00F5614059
:1026B40000F00F0080F80033135430BD00ED00E04B
:1026C40014ED00E0002807DB01234109034A00F070
:1026D4001F00834042F82130704700BF00E100E052
:1026E4000138B0F1807F0BD24FF0E023F021054A8E
:1026F400586182F823100020072298611A617047FC
:102704000120704700ED00E090F821200346022AE2
:1027140006D0042282630120002283F8202070471F
:102724000268C06B116821F00E011160116821F07C
:102734000101116001211A6C01FA02F242600020C9
:1027440083F82110E8E7000008B590F82130022B47
:1027540003D004238363012008BD03681A6822F0B0
:102764000E021A601A6822F001021A60284A934283
:1027740024D902F56272934219D01432934218D0CC
:102784001432934217D01432934214BF4FF480335F
:102794004FF480531F4A5360012380F821300023F3
:1027A40080F82030436B03B198470020D4E701231D
:1027B400F0E71023EEE74FF48073EBE716498B4202
:1027C40016D014318B4215D014318B4214D01431ED
:1027D4008B4214D014318B4214D014318B4214D058
:1027E400934214BF4FF480334FF080730B4AD2E707
:1027F4000123FBE71023F9E74FF48073F6E74FF466
:102804008053F3E74FF48033F0E74FF48013EDE7A0
:102814008000024000040240080002400000024020
:102824002DE9F74F00244FF00F0E2646DFF89CC128
:10283400674B00F104080A6832FA06F502D103B0C6
:10284400BDE8F08F012505FA06F702EA070537EA25
:1028540002027ED14A68032A07D8013A022A00F20A
:102864008C80DFE802F09A9FA500122A00F09D8078
:1028740071D8112A00F09380FF2D94BF8146C14680
:102884004FEA8602D9F8007088BF203A0EFA02FA9D
:1028940027EA0A0704FA02F21743C9F80070D1F8CC
:1028A400049019F0805F54D0DCF8182026F0030758
:1028B40042F00102CCF81820DCF8182007F1804718
:1028C40002F00102019207F5803706F0030A019A2B
:1028D4004FEA8A0ABA680EFA0AFB22EA0B0B3D4A4F
:1028E400904269D002F58062904267D002F580621E
:1028F400904265D002F58062904263D002F5806216
:10290400904261D002F58062904214BF06220522F3
:1029140002FA0AF242EA0B02BA609A6819F4801FBA
:1029240014BF2A43AA439A60DA6819F4001F14BF3B
:102934002A43AA43DA605A6819F4003F14BF2A43B1
:10294400AA435A601A6819F4803F14BF2A43AA4361
:102954001A6001366FE7DFF880904A450DD015D82C
:10296400A9F580194A4508D009F570294A4504D0CB
:10297400A9F580194A457FF47FAF8A68D2B1012A4C
:102984004FF008040CBF0761476175E7DFF84C900E
:102994004A45F2D009F58039ECE7CC686CE7CC689D
:1029A400043469E7CC68083466E7CC680C3463E720
:1029B400002461E704245FE70022A9E70122A7E7D6
:1029C4000222A5E70322A3E70422A1E700100240A4
:1029D40000040140000801400000221000003110F2
:1029E4008368194214BF012000207047044A08B5C7
:1029F4005169014202D05061FFF75EF908BD00BF82
:102A0400000401402DE9F341054638B30368DB07B0
:102A140010D42B689F075ED42B68190700F19580AA
:102A24002B685A0700F1C180EB69002B40F02C8120
:102A3400002029E0904C636803F00C03042B07D0BA
:102A4400636803F00C03082B0AD16368DE0307D51F
:102A540023689C03DDD56B68002BDAD1012013E0D9
:102A64006B68B3F5803F12D1236843F4803323604D
:102A7400FFF7E0FD064623689803CAD4FFF7DAFDA2
:102A8400801B6428F7D9032002B0BDE8F0819BB90C
:102A9400236823F480332360236823F48023236092
:102AA400FFF7C8FD064623689903B2D5FFF7C2FDB8
:102AB400801B6428F7D9E6E7B3F5A02F236803D178
:102AC40043F480232360CFE723F480332360236817
:102AD40023F48023CBE7684C636813F00C0F07D012
:102AE400636803F00C03082B10D16368DA030DD478
:102AF40023689B0702D52B69012BAFD123686A6930
:102B040023F0F80343EAC203236085E72A695B4B99
:102B14006AB101221A60FFF78DFD064623689F07FC
:102B2400ECD4FFF787FD801B0228F7D9ABE71A60C6
:102B3400FFF780FD0646236898077FF56DAFFFF722
:102B440079FD801B0228F6D99DE7AA694A4E4B4BB2
:102B5400E2B10122C3F88024FFF76CFD0446736AD6
:102B64009B070DD54FF4FA52454B1B68B3FBF2F3A8
:102B7400019300BF019B5A1E0192002BF9D14FE72C
:102B8400FFF758FD001B0228E9D97CE7C3F880242D
:102B9400FFF750FD0446736A9F077FF541AFFFF7C7
:102BA40049FD001B0228F6D96DE7334CE369D800D0
:102BB40024D40127E36943F08053E361E36903F01C
:102BC40080530093009B2F4E3368D90518D5EB68CA
:102BD400012B26D1236A43F001032362FFF72AFD68
:102BE40041F288380646236A9B073FD5002F3FF4FD
:102BF4001BAFE36923F08053E36115E70027E2E7A5
:102C0400336843F480733360FFF714FD8046336800
:102C1400DA05DCD4FFF70EFDA0EB08006428F6D932
:102C240031E7ABB9236A41F2883823F00103236208
:102C3400236A23F004032362FFF7FCFC0646236A9D
:102C44009807D3D5FFF7F6FC801B4045F7D91AE760
:102C5400052B236A03D143F004032362BAE723F06C
:102C640001032362236A23F00403B6E7FFF7E2FCBF
:102C7400801B4045B7D906E70010024000004242DD
:102C84000C000020007000402A4C626802F00C0224
:102C9400082A3ED00022022B274B1A662CD1FFF7BC
:102CA400C9FC06462368990120D42B6AB3F5803FFA
:102CB40005D16268A96822F400320A436260696A35
:102CC40062680B4322F474121343012263601A4BAB
:102CD4001A66FFF7AFFC054623689A013FF5A8AED4
:102CE400FFF7A8FC401B0228F6D9CCE6FFF7A2FCAC
:102CF400801B0228D6D9C6E6FFF79CFC054623684C
:102D04009B017FF595AEFFF795FC401B0228F6D991
:102D1400B9E6012B3FF4A2AE60682B6A00F480325E
:102D24009A427FF49BAE6B6A00F47010C01A18BF0D
:102D34000120A9E600100240000042420D4A5368F7
:102D440003F00C01082912D10B48C3F38341DB03C0
:102D5400405C09D55368094AC3F340435043084AC9
:102D6400D35CB0FBF3F07047064B584370470348FD
:102D7400704700BF00100240DA47000800127A00D2
:102D8400D847000800093D002DE9F0410D460446EE
:102D940010B90120BDE8F081444A136803F0070329
:102DA4008B4228D321688E0730D4CA0743D43F4AC4
:102DB400136803F00703AB4265D822683C4D12F058
:102DC400040F6CD1130706D56B68226923F4605392
:102DD40043EAC2036B60FFF7B1FF6B68354AC3F384
:102DE4000313D35CD840344B1860344B1868FFF796
:102DF400DFFB0020CEE7136823F007030B431360C7
:102E0400136803F007038B42C3D1CBE7284B11F0BF
:102E1400040F1EBF5A6842F4E0625A60080742BFBA
:102E24005A6842F460525A605A68A06822F0F0026C
:102E340002435A60B9E762681D4E012A33681AD109
:102E440013F4003FA5D0736841F2883823F00303DC
:102E540013437360FFF7EEFB07467368626803F081
:102E64000C03B3EB820FA2D0FFF7E4FBC01B404579
:102E7400F3D903208EE7022A02D113F0007FE1E7A1
:102E840013F0020FDEE7136823F007032B431360EC
:102E9400136803F00703AB427FF47BAF8DE76B68E5
:102EA400E16823F4E0630B436B608BE7002002408E
:102EB40000100240C84700080C0000201400002045
:102EC400044B054A5B68C3F30223D35C034A1068CE
:102ED400D840704700100240C04700080C00002092
:102EE400044B054A5B68C3F3C223D35C034A1068EE
:102EF400D840704700100240C04700080C00002072
:102F0400036A026A70B522F00102026244688269AF
:102F14000D6822F073022A438D6823F002032B43C9
:102F24000C4DA84203D005F50065A8420BD1CD682D
:102F340023F008032B4324F44074D1E905563543A8
:102F440023F004032C43446082614A6842630362B1
:102F540070BD00BF002C0140036A026A70B522F400
:102F6400807202624468C2690D6822F073022A43C7
:102F74008D6823F4007343EA05230D4DA84203D062
:102F840005F50065A8420DD1CD6823F4006343EA3A
:102F9400052324F44054D1E90556354323F48063D2
:102FA40044EA05144460C2614A68C263036270BDA6
:102FB400002C0140036A026A30B522F48052026296
:102FC4004468C2690D6822F4E64242EA05228D682B
:102FD40023F4005343EA0533084DA84203D005F512
:102FE4000065A84204D14D6924F4804444EA851460
:102FF4004460C2614A680264036230BD002C01402F
:1030040090F83D30012B24D10223134A80F83D303F
:103014000368934212D002F5006293420ED0B3F1DA
:10302400804F0BD0A2F59832934207D002F580620C
:10303400934203D002F58062934204D19A6802F06D
:103044000702062A03D01A6842F001021A6000201F
:1030540070470120704700BF002C014070470346B1
:1030640030B590F83E0093F83F2093F8425093F81F
:103074004340C0B2D2B2EDB2E4B2C1B9012845D1E5
:10308400012D13D1022283F83E2083F842201A68CE
:10309400116A21F001011162116A41F0010100205D
:1030A40011621A68136843F00103136030BD0429E8
:1030B40011D1012A2AD1012C28D1022283F83F20E0
:1030C40083F843201A68116A21F010011162116A11
:1030D40041F01001E3E7012818D1012AE6D1012DBE
:1030E400E4D1012CE2D1022283F83E2083F83F2070
:1030F40083F8422083F843201A68116A21F0010101
:103104001162116A41F001011162DCE70120CDE78F
:103114001D4A0368904212D002F5006290420ED01C
:10312400B0F1804F0BD0A2F59832904207D002F54F
:103134008062904203D002F58062904207D14A68CF
:1031440023F070031343CA6823F4407313434A699A
:1031540023F08003134303608B68C3620B688362AC
:10316400094B984203D003F50063984201D10B69DF
:103174000363012343610369DB0742BF036923F04F
:1031840001030361704700BF002C014010B50446E1
:1031940030B390F83D3003F0FF021BB980F83C20B7
:1031A400FEF762FF0223206884F83D30211DFFF7FB
:1031B400AFFF0123002084F8463084F83E3084F8C1
:1031C4003F3084F8403084F8413084F8423084F849
:1031D400433084F8443084F8453084F83D3010BDE1
:1031E4000120FCE710B5044630B390F83D3003F0FD
:1031F400FF021BB980F83C20FFF730FF0223206850
:1032040084F83D30211DFFF783FF0123002084F85B
:10321400463084F83E3084F83F3084F8403084F8F7
:10322400413084F8423084F8433084F8443084F8E0
:10323400453084F83D3010BD0120FCE7F8B50D465B
:10324400044600284CD090F83D3003F0FF021BB92F
:1032540080F83C20FEF72EFF0223214684F83D30FF
:1032640051F8040B836823F4804323F0070383603D
:10327400FFF74EFF81682A688369AE691143AA6823
:1032840023F4407323F0030342EA06221A432B6912
:10329400EE691B0143EA0623EE6822F47C423343C1
:1032A4002E6A22F0FC0243EA0633076A6E6913436E
:1032B4006A6827F0220742EA061281601743836195
:1032C40001230762002084F8463084F83E3084F8F5
:1032D4003F3084F8423084F8433084F83D30F8BD00
:1032E4000120FCE7036A026A70B522F01002026250
:1032F400446882690D6822F4E64242EA05228D6838
:1033040023F0200343EA05130D4DA84203D005F52D
:103314000065A8420DD1CD6823F0800343EA05136C
:1033240024F44064D1E90556354323F0400344EACC
:103334008504446082614A688263036270BD00BF91
:10334400002C014038B590F83C300446012B4FD096
:103354000120082A84F83C003AD006D8BAB1042ADD
:1033640026D0002384F83C3038BD0C2AF9D12068DB
:10337400FFF720FEC3690A6943F40063C361C369AC
:1033840023F48063C361C36943EA02232EE0206807
:10339400FFF7B6FD83690A6943F008038361836913
:1033A40023F0040383618369134383610020D8E716
:1033B4002068FFF797FF83690A6943F40063836118
:1033C400836923F480638361836943EA0223ECE71E
:1033D4002068FFF7C1FDC3690A6943F00803C361AC
:1033E400C36923F00403C361C3691343C361DDE705
:1033F4000220B9E710B584680A4324F47F4442EA02
:1034040003222243826010BD38B590F83C30044654
:10341400012B4FF0020000F08E80012284F83D0061
:10342400206884F83C20836823F47F4323F07703E7
:1034340083600B68602B4FD032D8402B64D016D8F1
:10344400202B0DD00AD833F0100109D0012384F8C1
:103454003D30002384F83C30104638BD302BF5D184
:10346400826822F07002134343F0070328E0502BD4
:10347400ECD14A68CD68016A036A21F00A0123F09D
:103484000103036283690A4323F0F00343EA05134B
:1034940083610262836823F0700343F057030FE0F3
:1034A400B3F5805F0DD0B3F5005F0CD0702BCDD198
:1034B400CB68D1E90121FFF79DFF836843F07703CF
:1034C40083600022C2E7CB68D1E90121FFF792FFB4
:1034D400836843F48043F3E7036A026A4D6822F089
:1034E4001002C9680262826923F0A00322F47042C8
:1034F40043EA051342EA013282610362836823F0DE
:10350400700343F06703DBE74A68CD68016A036A26
:1035140021F00A0123F00103036283690A4323F0C3
:10352400F00343EA051383610262836823F07003A6
:1035340043F04703C4E702468EE710B50124036A4B
:1035440001F01F018C4023EA04030362036A8A40EA
:103554001A43026210BD000008B529B990F83E3044
:10356400012B1ED0012034E0042907D190F83F300C
:10357400012BF7D1022380F83F3015E008290CBF56
:1035840090F8403090F84130013B18BF0123002BE4
:10359400E8D1022308290CBF80F8403080F841307C
:1035A40002E0022380F83E3000680122FFF7C5FFE5
:1035B400124B984203D003F5006398420AD1436C3E
:1035C40043F400434364836803F00703062B0FD1DD
:1035D400002008BDB0F1804FF5D0094B9842F2D0DD
:1035E40003F580639842EED003F580639842EAD0F5
:1035F400036843F001030360EAE700BF002C0140C5
:1036040000040040FFF7A8BF30B590F83C300246F4
:10361400012B4FF002002AD0136882F83D005C6849
:103624000D6824F070042C4398685C60104CA3422D
:1036340012D004F50064A3420ED0B3F1804F0BD036
:10364400A4F59834A34207D004F58064A34203D0C0
:1036540004F58064A34204D1496820F0800001434A
:1036640099600123002082F83D3082F83C0030BD8F
:10367400002C014090F83C300246012B1ED0CB6850
:10368400886823F440730343486823F48063034346
:10369400086823F400630343086923F48053034355
:1036A400486923F4005303430020C96923F4804389
:1036B4000B4311684B6482F83C007047022070474A
:1036C400026802F10C0353E8003F23F490730C32B8
:1036D40042E8003102680029F2D102F1140353E8F0
:1036E400003F23F0010302F1140C4CE800310029DF
:1036F400F3D1036B012B0BD102F10C0353E8003F10
:1037040023F0100302F10C0C4CE800310029F3D132
:10371400202380F8423000230363704710B5044629
:103724000368C1681A6922F440520A431A61826824
:103734000069D9680243606921F4B05121F00C0199
:1037440002430A43DA605A69A16922F440720A43C7
:103754005A610E4A934215D1FFF7C2FB1923434322
:10376400626820689200B3FBF2F36422B3FBF2F1C7
:1037740002FB11331B013233B3FBF2F303EB0113EE
:10378400836010BDFFF79CFBE8E700BF00380140F1
:10379400F7B505460C4617461E462A68136834EAF0
:1037A400030301D1002021E0701CF7D0FEF742FF93
:1037B400C01B86421CD3DEB12B68DA685107ECD5F6
:1037C400802CEAD0402CE8D01A681207E5D50024F2
:1037D40001941A68284601925B680193019BFFF7E4
:1037E4006FFF082301206B6485F8404003B0F0BDEF
:1037F4000320FBE710B5044648B390F8413003F0CA
:10380400FF021BB980F84020FEF7FCFD2423226848
:1038140084F84130D368204623F40053D360FFF783
:103824007DFF236800201A6922F490421A615A69C4
:1038340022F02A025A61DA6842F40052DA60202344
:10384400606484F8413084F84230606310BD012024
:10385400FCE72DE9F843984690F841300446202BC4
:103864000E4617463FD100293FD0002A3DD02123E0
:103874000025456480F84130FEF7DCFEA3688146EC
:10388400B3F5805FA784E78403D123690BB9354678
:103894001E46E38C9BB253B943464A464021204618
:1038A400FFF776FF202350B984F841300AE04346FD
:1038B4004A4680212046FFF76BFF28B120230320CE
:1038C40084F84130BDE8F88322684EB935F8023BEC
:1038D400C3F308035360E18C013989B2E184D8E76A
:1038E40016F8013BF6E70220ECE70120EAE770470F
:1038F40008B50023406AC385C384FDF733FC08BDC3
:10390400704790F8423007B5222B42D18168026893
:10391400B1F5805F836A3FD1016900293FD15268C4
:10392400C2F3080223F8022B8362C38D013B9BB2CE
:10393400C385002B2DD10268D16821F02001D1600C
:10394400D16821F48071D160516921F00101516184
:10395400202280F842204363026B012A026828D1A6
:10396400036302F10C0353E8003F23F0100302F158
:103974000C0C4CE800310029F3D11368DB0605D5A3
:1039840001911368019353680193019B818DFFF7A3
:10399400B7FF03B05DF804FB39B9016929B952686E
:1039A400D2B21A70836A0133BEE7526802F07F0212
:1039B400F7E7FDF79FFBECE7036873B51A68044665
:1039C4001607D9685D6908D1960668D58D0666D54F
:1039D40002B0BDE87040FFF794BF05F0010001F4A8
:1039E400907505435BD0D60705D5CD0542BF636C02
:1039F40043F001036364530704D518B1636C43F0C7
:103A040002036364960704D518B1636C43F004039E
:103A14006364150707D501F0200303431EBF636CDD
:103A240043F008036364636C002B32D0920604D520
:103A34008B0602D52046FFF764FF2668204673698B
:103A4400626C03F0400302F0080253EA020522D03C
:103A5400FFF736FE73695E0618D5226802F1140377
:103A640053E8003F23F04003143242E800310029B8
:103A7400F3D1E06B50B1744B4363FEF765FE40B184
:103A8400E06B436B02B0BDE8704018472046FDF779
:103A940069FB02B070BDFDF765FB6564F9E7206B57
:103AA400012840F09480D50640F19180C80640F189
:103AB4008E80002201921A6801925A680192019A3A
:103AC4005A6952064DD5E16B0A68526892B2002ACF
:103AD400DFD0A08D9042DCD9E2858A69202A36D0D5
:103AE40003F10C0252E8002F22F4807203F10C005F
:103AF40040E800210029F3D103F1140252E8002F19
:103B040022F0010203F1140040E800210029F3D15E
:103B140003F1140252E8002F22F0400203F11400D2
:103B240040E800210029F3D1202284F842202163B7
:103B340003F10C0252E8002F22F0100203F10C00F2
:103B440040E800210029F3D1E06BFEF7DDFD0223FC
:103B54006363E38DA18DC91A89B22046FFF7D0FEB5
:103B640097E7E28DE08DA18D80B292B2002890D0CB
:103B7400891A89B200298CD003F10C0252E8002F73
:103B840022F4907203F10C0545E800200028F3D1DB
:103B940003F1140252E8002F22F0010203F114058C
:103BA40045E800200028F3D1202284F84220206335
:103BB40003F10C0252E8002F22F0100203F10C056D
:103BC40045E800200028F3D102236363C5E7160605
:103BD40028D50D0626D594F84120212A7FF459AF23
:103BE400A168226AB1F5805F17D12169A9B932F8B9
:103BF400021BC1F3080159602262E28C013A92B2BD
:103C0400E284002A7FF445AFDA6822F08002DA60A9
:103C1400DA6842F04002DA603BE7511C2162127814
:103C24005A60EAE750067FF534AF4A067FF531AFB4
:103C3400DA68204622F04002DA60202384F841301A
:103C4400FFF755FE25E700BFF53800080023C285BD
:103C5400436422238285026980F8423081620368CA
:103C64001AB1DA6842F48072DA605A69002042F0CC
:103C740001025A61DA6842F02002DA60704770B4D7
:103C840090F84260202E06D141B13AB10024046379
:103C940070BCFFF7DBBF022070BC70470120FBE75C
:103CA4002DE9F04386460D46334E284615F8014B60
:103CB400375D17F00807F8D12D2C10D101272C7887
:103CC400851C33F0100015D1302C0DD1287800F06C
:103CD400DF00582808D16C78023510230AE02B2C19
:103CE40004BF2C78851CECE7002BF6D1302C14BFD4
:103CF4000A2308234FF0FF38B8FBF3F8002603FB30
:103D040008F930466FEA0909A4F1300CBCF1090F37
:103D140010D86446A3421EDDB6F1FF3F07D08045AC
:103D240016D301D1A14513DB012600FB034015F88E
:103D3400014BE9E7A4F1410CBCF1190F01D8373C60
:103D4400E8E7A4F1610CBCF1190F04D8573CE1E792
:103D54004FF0FF36EBE7731C06D122233046CEF832
:103D6400003032B9BDE8F08307B14042002AF9D0EF
:103D740006B1691E1160F5E7EB47000813460A46D1
:103D8400014602480068FFF78BBF00BF18000020FF
:103D94000EB46FF0004110B500249DB01FAB02902B
:103DA4000690079104910948094953F8042B059199
:103DB400006802A901931B9400F0B2F9029B1C70E5
:103DC4001DB0BDE8104003B0704700BF18000020CC
:103DD4000802FFFF03460244934200D1704703F8F0
:103DE400011BF9E710B56AB10139841810F8012BE9
:103DF40011F8013F9A4203D1A04201D0002AF5D123
:103E0400D01A10BD1046FCE7014B1868704700BF7C
:103E14001800002070B500260C4D0D4C641BA41036
:103E2400A64209D100F076FC00260A4D0A4C641B18
:103E3400A410A64205D170BD55F8043B984701363D
:103E4400EEE755F8043B98470136F2E7F4480008DA
:103E5400F4480008F4480008F84800087047704720
:103E64000A44914200F1FF3300D1704710B511F8B4
:103E7400014B914203F8014FF9D110BD38B5054605
:103E8400002940D051F8043C0C1F002BB8BFE418A3
:103E940000F0DEF81C4A136833B9636014602846E6
:103EA400BDE8384000F0DAB8A34208D920682118E8
:103EB4008B4201BF19685B6809182160EDE71A4657
:103EC4005B680BB1A342FAD911685018A0420BD118
:103ED40020680144501883421160E0D118685B687F
:103EE400084410605360DAE702D90C232B60D6E74C
:103EF400206821188B4201BF19685B68091821608A
:103F040063605460CBE738BDA009002070B50F4E44
:103F14000C463168054611B900F0A8FB3060214613
:103F2400284600F0A3FB431C03D14FF0FF34204686
:103F340070BDC41C24F00304A042F8D0211A284602
:103F440000F094FB0130F2D1EFE700BF9C090020A0
:103F54002DE9F843CD1C25F0030508350C2D38BF99
:103F64000C25002D064601DBA94204D90C2333603D
:103F74000020BDE8F883DFF8D48000F069F8D8F8B1
:103F840000301C4644BB29463046FFF7BFFF431CA4
:103F9400044658D1D8F800402746002F43D1002CBE
:103FA4004BD023683946304604EB030900F05EFB2E
:103FB400814542D1216830466D1A2946FFF7A6FF94
:103FC40001303AD023682B442360D8F800305A6873
:103FD40062BBC8F800700FE02268521B20D40B2A81
:103FE40017D96119A342256018BF5960636808BFD7
:103FF400C8F8001062514B60304600F02FF804F10D
:104004000B00231D20F00700C21A1CBF1B1AA3506B
:10401400AFE76268A3420CBFC8F800205A60EBE720
:1040240023466468AEE73C467F68B6E71A465B6899
:10403400A342FBD100235360DEE70C2330463360F8
:1040440000F00CF894E70560D6E700BFA009002053
:104054000148FFF703BF00BF980900200148FFF79C
:10406400FEBE00BF980900202DE9F0471F468E6868
:104074008246BE420C4690460B682DD8B1F90C20FE
:1040840012F4906F26D06569096905EB4505A3EB29
:10409400010905EBD5757B1C4B446D109D4238BF5F
:1040A4001D46530527D52946FFF752FF064660B340
:1040B4004A462169FFF7D4FEA38923F4906343F0B1
:1040C4008003A38126614E4426603E466561A5EBCC
:1040D4000905A560BE4200D93E46324641462068E5
:1040E40000F0AAFA0020A3689B1BA3602368334452
:1040F4002360BDE8F0872A4600F0D6FA0646002879
:10410400E0D150462169FFF7B9FE0C23CAF800300C
:10411400A3894FF0FF3043F04003A381E9E7000097
:104124002DE9F04F98468B8907461B060D46144629
:104134009DB010D50B6973B94021FFF709FF2860C2
:10414400286130B90C233B604FF0FF301DB0BDE84F
:10415400F08F40236B610023099320238DF82930CD
:1041640030234FF00109CDF80C80DFF898818DF8E9
:104174002A3023469A4613F8012B0AB1252AF9D18D
:10418400BAEB040B0BD05B46224629463846FFF7B0
:104194006BFF013000F0A780099A5A4409929AF8FB
:1041A4000030002B00F09F8000234FF0FF32CDE958
:1041B40005230AF1010A049307938DF853301A93E7
:1041C4005446052214F8011B4E4800F05FFA049A85
:1041D400D8B9D00644BF20238DF85330110744BF0B
:1041E4002B238DF853309AF800302A2B15D05446DF
:1041F40000204FF00A0C079A214611F8013B303B8E
:10420400092B4BD9B0B1079214E0A0EB080309FACB
:1042140003F31343A2460493D2E7039B191D1B68BF
:104224000391002BBBBF5B4242F00202079307934A
:10423400B8BF049223782E2B0AD163782A2B32D16B
:10424400039B02341A1D1B68039243EAE37305932C
:10425400DFF8B4A003225046217800F017FA38B1F1
:104264004022049BA0EB0A008240134301340493D0
:1042740014F8011B062225488DF8281000F006FAD0
:10428400002836D0224B1BBB039B073323F00703C4
:1042940008330393099B334409936AE70C460120CE
:1042A4000CFB0232A8E700234FF00A0C1946013434
:1042B4000593204610F8012B303A092A03D9002B24
:1042C400C6D00591C4E7044601230CFB0121F0E7A5
:1042D40003AB00932A4638460E4B04A9AFF3008083
:1042E400421C0646D6D1AB895B063FF52DAF099833
:1042F4002CE703AB00932A463846064B04A900F08A
:104304007DF8EDE78D4700089347000897470008BC
:10431400000000006D4000082DE9F047164698465D
:104324008A680B6907469342B8BF1346336091F815
:1043340043200C46DDF820900AB101333360236832
:10434400990642BF336802333360256815F00605C9
:1043540006D104F1190AE36832689B1AAB422BDCDC
:1043640094F843302268003B18BF0123920630D4EE
:104374004146384604F14302C847013023D023683C
:10438400226903F00603042B14BF002533684FF0A1
:10439400000608BFE56804F11A0408BFED1A54F8D2
:1043A400123C08BF25EAE5759342C4BF9B1AED1879
:1043B400B5421AD1002008E001235246414638464E
:1043C400C847013003D14FF0FF30BDE8F087013515
:1043D400C1E73020E11881F843005A1C94F84510D5
:1043E4002244023382F84310C2E7012322464146A5
:1043F4003846C8470130E6D00136D9E72DE9FF47F2
:104404000F7E9146782F80460C469A460C9E01F109
:10441400430207D8622F0AD8002F00F0D180582F0A
:1044240000F0B88004F1420684F842703AE0A7F143
:104434006303152BF6D801A151F823F09944000821
:10444400AD44000829440008294400082944000810
:1044540029440008AD440008294400082944000800
:104464002944000829440008AB450008D744000843
:10447400654500082944000829440008CD45000882
:1044840029440008D74400082944000829440008A6
:104494006D45000833681A1D1B68326004F142063A
:1044A40084F8423001239CE033682068191D316090
:1044B400060601D51D6803E04506FBD5B3F9005097
:1044C400002D03DA2D236D4284F843300A23584823
:1044D40011E021683368080653F8045B02D44906E6
:1044E40048BFADB26F2F336014BF0A23082350486E
:1044F400002184F843106668002EA66005DB21685D
:104504002E4321F0040121604BD01646B5FBF3F194
:1045140003FB1157C75D06F8017D2F46BB420D46CC
:10452400F4D9082B0BD12368DF0708D52369616808
:104534009942DEBF302306F8013C06F1FF36921B98
:1045440022614B4621464046CDF800A003AAFFF75E
:10455400E3FE01304AD14FF0FF3004B0BDE8F087EC
:10456400236843F0200323607827324884F8457099
:10457400236831681F0651F8045B02D45F0648BF04
:10458400ADB23160D90744BF43F0200323601DB1AD
:104594001023ADE72648E9E7236823F020032360CE
:1045A400F6E71646BDE733682568181D6169306073
:1045B4002E061B6801D5196002E06806FBD5198038
:1045C400002316462361BCE7336800211A1D3260BC
:1045D4001E686268304600F059F808B1801B6060BC
:1045E40063682361002384F84330AAE732464946CE
:1045F40040462369D0470130ADD023689B0713D4CC
:10460400E068039B9842B8BF1846A6E701233246E8
:1046140049464046D04701309DD00135E3680399AF
:104624005B1AAB42F2DCEBE7002504F11906F5E76F
:104634009E470008AF470008884210B501EB02040A
:1046440002D98442234607D8431EA14208D011F858
:10465400012B03F8012FF8E7014602448A4200D1F6
:1046640010BD13F8014D02F8014DF7E738B50023EA
:10467400054D044608462B60FDF75EFC431C02D141
:104684002B6803B1236038BD94090020034610B59C
:10469400C9B202449342184601D1002003E00478D1
:1046A40001338C42F6D110BD2DE9F0410746144682
:1046B4000D4621B91146BDE8F041FFF749BC2AB9BE
:1046C400FFF7DCFB25462846BDE8F08100F01AF828
:1046D4008442064602D8B4EB500FF4D8214638463B
:1046E400FFF736FC804608B94546ECE7B44222465B
:1046F400294628BF3246FFF7B3FB29463846FFF761
:10470400BDFBF1E751F8043C181F002BBCBF0B584C
:10471400C0187047F8B500BFF8BC08BC9E46704787
:0C472400F8B500BFF8BC08BC9E4670470A
:10473000543D0053544F50004C495645002D3131E3
:1047400031312C256C752C256C752C256C750D0A5A
:10475000002563256C642E2530326C642C2563257E
:104760006C642E2530326C642C2563256C642E25F8
:1047700030326C642C330D0A002D333333332C2547
:104780006C752C256C752C256C750D0A00232D304D
:104790002B2000686C4C0065666745464700303149
:1047A0003233343536373839414243444546003098
:1047B00031323334353637383961626364656600C7
:1047C00000000000010203040000000000000000DF
:1047D0000102030406070809010202030405060793
:1047E00008090A0B0C0D0E0F1010002020202020AD
:1047F0002020202028282828282020202020202091
:104800002020202020202020202020881010101080
:1048100010101010101010101010100404040404D4
:104820000404040404101010101010104141414100
:1048300041410101010101010101010101010101E8
:1048400001010101010110101010101042424242FA
:1048500042420202020202020202020202020202B8
:1048600002020202020210101010200000000000DC
:104870000000000000000000000000000000000038
:104880000000000000000000000000000000000028
:104890000000000000000000000000000000000018
:1048A0000000000000000000000000000000000008
:1048B00000000000000000000000000000000000F8
:1048C00000000000000000000000000000000000E8
:1048D00000000000000000000000000000000000D8
:0C48E000000000000000000000000000CC
:0848EC0038B9FF7F0100000054
:0448F40009020008AD
:0448F800E5010008CE
:1048FC00DC05DC05DC05DC05DC05000000127A00BB
:10490C0001000000100000001C000020000000004E
:10491C005C080020C40800202C09002000000000C6
:10492C00000000000000000000000000000000007B
:10493C00000000000000000000000000000000006B
:10494C00000000000000000000000000000000005B
:08495C00000000000000000053
:040000050800256961
:00000001FF
